:1000000072EF08F00000000000EF00F000000000B8
:0A0010000000000000000000F3D71C
:0E001C00030E0D6E0D2EFED700000000120028
:10002A009180FF0E996E9192030E8714016E015012
:0A003A00030A01E0F9D791821200D9
:0E004400570E0D6E0D2EFED7000000001200AC
:10005200EBDF996AD9C087FF9194DFDFDEDFDDDF56
:040062009184120073
:10006600E1DFC50E0001D96FF1DFFF0E996ED3DF18
:10007600919091929184CFDFCEDFCDDF87CFD6F0FE
:08008600D1DFD6C000F012002A
:10008E00086A096A100E0C6E0134083609360450DF
:10009E00085E0550D8A0053C095ED8B007D00450C4
:1000AE0008260550D8B0053C0926D89000360136F2
:0600BE000C2EEAD712002F
:1000C4000B6A0A6A096A00500402F4CF09F0F3CFFC
:1000D40008F001500502F4CF0BF0F3CF0AF0005002
:1000E4000502F3500926F4500A22E86A0B22015053
:1000F4000402F3500926F4500A22E86A0B2208C0CD
:1001040000F009C001F00AC002F00BC003F01200B5
:100114009190996AD6C087FF91947EDF7DDF7CDF62
:0401240091841200B0
:10012800C30EC216D6C000F000360090003600900C
:100138000050C21283DFC282C2A201D0FDD7C4CF51
:1001480001F0006A00C0D7F001C0D8F0C350001217
:10015800000E011200C0D7F001C0D8F0000E001444
:10016800026E0150800B036E000E031802E1000EB0
:10017800021803E00001D76BD86BD7C000F0D8C0D5
:0401880001F0120070
:10018C00100E0C6E940E0D6E0D2EFED70C2EFCD791
:04019C00000012004D
:1001A000F250026EF29E0500FF6A0150FE6E005092
:0801B000FD6E02BEF28E12008A
:1001B8004E0E0C6EEB0E0D6E0D2EFED70C2EFCD7D0
:0201C800120023
:1001CA0000018C51CE5D02E18B51CD5D01E398D0E7
:1001DA008451D05D02E18351CF5D01E391D0800E5D
:1001EA00CE19006E800E005C02E1000ECD5D01E2C8
:1001FA0087D0800ED019006E800E005C02E1000EDE
:10020A00CF5D01E27DD081C004F082C005F0CDC08F
:10021A0000F0CEC001F036DF00C0D2F0CFC000F04F
:10022A00D0C001F0A1C004F0A2C005F046DFD2514F
:10023A000026000E012285510024036E86510120FA
:10024A00046E04C000F0016A00C0D3F003C0D6F007
:10025A005CDFD3C0D6F059DF240ED96FF5DE00017A
:10026A00D151020A35E1DCDEF9DE00C0D4F081C0EA
:10027A0004F082C005F0CDC000F0CEC001F002DF6C
:10028A0008C000F009C001F000500001815D006E55
:10029A00000600C001F0010E006E015004E00036B5
:1002AA000090FF0FFBD700C0D5F0D451001607E02D
:1002BA00D51D006E00C0D5F00050D41702D0D5511C
:1002CA00D413D4C0D6F021DFC40ED96FBDDE18D046
:1002DA00F00E0001D111D96F81C004F082C005F07F
:1002EA00CDC000F0CEC001F0CDDE08C000F009C0DC
:1002FA0001F00050815D006E00060050D913A4DEA3
:02030A001200DF
:10030C00B9C000F0016A00C0BBF0B8C0D6F0FCDE8A
:0E031C00BBC0D6F0F9DEBAC0D9F095DE1200F3
:10032A008F968F9844DF79C0E1FF7AC0E2FF93C0CD
:10033A00E6FF77C000F078C001F02DDF0150000120
:10034A009B5D02E100509A5D010ED8B0000EB86FB5
:10035A0018DF17DF79C0E1FF7AC0E2FF93C0E6FF3A
:10036A0077C000F078C001F016DF015000019B5DF4
:10037A0002E100509A5D010ED8B0000E026E0250E2
:0A038A00B815006E00C0B8F01200B4
:100394000B1E0A1E091E081E082AD8B4092AD8B43E
:0803A4000A2AD8B40B2A12004A
:1003AC000001BA51BE5D016EBB51BF59026E01C056
:1003BC00C5F002C0C6F0B851BC5DC76FB951BD598C
:1003CC00C86F800E0218006E800E005C02E1000EF9
:1003DC00015C0BE2C5510008C56FC651000EC65733
:1003EC00FF0ECB6FFF0ECC6F04D0010ECB6F000E47
:1003FC00CC6F800EC819006E800E005C02E1000EFE
:10040C00C75D0BE2C7510008C76FC851000EC85733
:10041C00FF0EC96FFF0ECA6F04D0010EC96F000E1C
:10042C00CA6FC537C591C637C737C791C837B8C06B
:10043C00CDF0B9C0CEF0BAC0CFF0BBC0D0F0C0C0C8
:10044C00D1F0BDDE800E0001C619006E800EC819F9
:10045C00005C02E1C751C55D42E2C7C000F0C8C0F4
:10046C0001F001320032019E01BC018E0050C55DCD
:10047C00C16F0150C659C26F0001B951BD1902E1DB
:10048C00BC51B8192BE0800EC219006E800E005CB6
:10049C0002E1000EC15D08E3CB51BA27CC51BB235E
:1004AC00C751C15FC851C25BC951B825006ECA5152
:1004BC00B921016E00C0B8F001C0B9F0C551C12717
:1004CC00C651C22300C0CDF001C0CEF0BAC0CFF0EF
:1004DC00BBC0D0F0C0C0D1F072DECED742D0C5C008
:1004EC0000F0C6C001F001320032019E01BC018E49
:1004FC0000500001C75DC36F0150C859C46F0001A3
:10050C00BB51BF1902E1BE51BA192BE0800EC419C0
:10051C00006E800E005C02E1000EC35D08E3C95161
:10052C00B827CA51B923C551C35FC651C45BCB515F
:10053C00BA25006ECC51BB21016E00C0BAF001C0CF
:10054C00BBF0C751C327C851C423B8C0CDF0B9C044
:10055C00CEF000C0CFF001C0D0F0C0C0D1F02FDE83
:04056C00CED71200D4
:100570008F968F8821DE79C0E1FF7AC0E2FF93C0B9
:0E058000E6FF77C000F078C001F00ADE12003E
:10058E000450085E0550D8A0053C095E0650D8A060
:10059E00063C0A5E0750D8A0073C0B5E0336070EDA
:1005AE000C6E0334083609360A360B36045003A097
:1005BE000ED0085E0550D8A0053C095E0650D8A0A6
:1005CE00063C0A5E0750D8A0073C0B5E0DD00826ED
:1005DE000550D8B0053C09260650D8B0063C0A2670
:1005EE000750D8B0073C0B2603360C2EDAD7023450
:1005FE00083609360A360B36045003A00ED0085EB4
:10060E000550D8A0053C095E0650D8A0063C0A5EEF
:10061E000750D8A0073C0B5E0DD008260550D8B069
:10062E00053C09260650D8B0063C0A260750D8B01D
:10063E00073C0B260236070E0C6E023408360936BE
:10064E000A360B36045002A00ED0085E0550D8A014
:10065E00053C095E0650D8A0063C0A5E0750D8A09D
:10066E00073C0B5E0DD008260550D8B0053C092678
:10067E000650D8B0063C0A260750D8B0073C0B26C9
:10068E0002360C2EDAD70134083609360A360B3606
:10069E00045002A00ED0085E0550D8A0053C095E9D
:1006AE000650D8A0063C0A5E0750D8A0073C0B5E49
:1006BE000DD008260550D8B0053C09260650D8B0F6
:1006CE00063C0A260750D8B0073C0B260136070E0B
:1006DE000C6E0134083609360A360B36045001A06A
:1006EE000ED0085E0550D8A0053C095E0650D8A075
:1006FE00063C0A5E0750D8A0073C0B5E0DD00826BC
:10070E000550D8B0053C09260650D8B0063C0A263E
:10071E000750D8B0073C0B2601360C2EDAD7003422
:10072E00083609360A360B36045001A00ED0085E84
:10073E000550D8A0053C095E0650D8A0063C0A5EBE
:10074E000750D8A0073C0B5E0DD008260550D8B038
:10075E00053C09260650D8B0063C0A260750D8B0EC
:10076E00073C0B260036070E0C6E00340836093691
:10077E000A360B36045000A00ED0085E0550D8A0E5
:10078E00053C095E0650D8A0063C0A5E0750D8A06C
:10079E00073C0B5E0DD008260550D8B0053C092647
:1007AE000650D8B0063C0A260750D8B0073C0B2698
:1007BE0000360C2EDAD700B00ED0045008260550A5
:1007CE00D8B0053C09260650D8B0063C0A2607507C
:0807DE00D8B0073C0B26120005
:1007E6008F868F98E6DC79C0E1FF7AC0E2FF9CC075
:0E07F600E6FF77C000F078C001F0CFDC120003
:10080400080E0C6EC10E0D6E0D2EFED70C2EFCD7ED
:06081400000000001200CC
:10081A00070E0B6E170E0C6E6A0E0D6E0D2EFED79E
:0C082A000C2EFCD70B2EFAD70000120099
:10083600800E0001B419006E800EB019005C02E152
:10084600AF51B35D17E3AFC0B8F0B0C0B9F0B1C0F7
:10085600BAF0B2C0BBF0AFC0BCF0B0C0BDF0B5C01E
:10086600BEF0B6C0BFF0B7C0C0F09DDD0001AF4B13
:06087600B02BDED71200DA
:10087C000001B46BB56B15EC00F00001B05185258F
:10088C00B86FB1518621B96F240EBA6F39DDB00E35
:10089C000001D96F29EC00F09190996A0001B351D5
:1008AC00B55D02E1B251B45D0DE2AFC087FF91942A
:1008BC000EEC00F00EEC00F00EEC00F09184B44B5A
:0E08CC00B52BECD7B20ED96F29EC00F012005C
:1008DA00220E0C6E086A096A0A6A0B6A0C06D8B4F8
:1008EA001FD0D8900B320A32093208320332023250
:1008FA0001320032D8A0F2D70C06D8B409D004507D
:10090A0008260550092206500A2207500B22EAD768
:10091A00045008260550092206500A2207500B22C5
:02092A001200B9
:10092C000450000A12E10550000A0FE10650000ABB
:10093C000CE10750000A09E1FF0E006EFF0E016E7C
:10094C00FF0E026E7F0E036E97D00C6A07BE0C2A48
:10095C000D6A0B6A0A6A096A086A035002100110D0
:10096C000010D8B484D0035007180E6E0EBE0D1EA6
:10097C0007AE0BD0041E051E061E071E042AD8B493
:10098C00052AD8B4062AD8B4072A03AE0BD0001E09
:10099C00011E021E031E002AD8B4012AD8B4022A52
:1009AC00D8B4032A035007100E6E0EBE1CD0E9DD1E
:1009BC000CBE36D00DAE5BD0001E011E021E031EF7
:1009CC00002AD8B4012AD8B4022AD8B4032A081EA3
:1009DC00091E0A1E0B1E082AD8B4092AD8B40A2AE2
:1009EC00D8B40B2A44D007AE15D003BE0DD003509B
:1009FC000B6E02500A6E0150096E0050086E036AAD
:100A0C00026A016A006AD6D7036A026A016A006A3E
:100A1C00002A000C031E021E011E001E0C8EC7D7DE
:100A2C00082AD8B4092AD8B40A2AD8B40B2A0450F4
:100A3C00085CD8A4BFD70550095CD8A4BBD7065016
:100A4C000A5CD8A4B7D707500B5CD8A4B3D70B6AF1
:100A5C000A6A096A086A002AD8B4012AD8B4022A98
:100A6C00D8B4032A03AEA6D70E6A0E88FF0C0E6A02
:0A0A7C000CA001D089DC000F12006D
:100A86008F868F98000E0001991902E1800E981941
:100A960008E1000E9E1902E1400E9D1902E1AFDE4B
:100AA60002D0DCEC00F079C0E1FF7AC0E2FF9CC026
:100AB600E6FF77C000F078C001F0D0EC00F012003D
:100AC6008F968F88000E0001991902E1800E981901
:100AD60008E1000E9E1902E1400E9D1902E18FDE2B
:100AE60002D0DCEC00F079C0E1FF7AC0E2FF93C0EF
:100AF600E6FF77C000F078C001F0D0EC00F01200FD
:100B0600B3C0D9F029EC00F0B2C000F0000E016EBF
:100B1600A1C004F0A2C005F062EC00F00001B151E2
:100B26000024B86F000E0120B96F8D51B8278E5181
:100B3600B923240EBA6F86EC01F0AFC0E9FFB0C04E
:100B4600EAFFEE5211E0AFC0E9FFB0C0EAFF200EA7
:100B5600EE5C0001D66F8AEC00F0AF4BB02BC00EF6
:0A0B6600D96F29EC00F0E9D7120066
:100B700095EC01F0005201E1FBD7000E991902E15A
:100B8000800E981917E1000E9E1902E1400E9D1982
:100B900011E129DE0A0E005C0001946F000E01587D
:100BA000956FE6DC0A0E005C0001876F000E0158AD
:100BB000886F10D018DE030E005C0001946F000EE9
:100BC0000158956FD5DC030E005C0001876F000EA5
:060BD0000158886F1200BD
:100BD60095EC01F0005201E1FBD7000E991902E1F4
:100BE600800E981917E1000E9E1902E1400E9D191C
:100BF60011E1F6DD050E00240001896F000E0120CB
:100C06008A6FB3DC050E002400019F6F000E0120E1
:100C1600A06F10D0E5DD030E00240001896F000EE1
:100C260001208A6FA2DC030E002400019F6F000ED4
:060C36000120A06F120076
:100C3C000900F5CFE6FF0006FBE10106F9E1120021
:100C4C00280E0001776F010E786FD60E796F000EAB
:0E0C5C007A6FC26A0F0EC012C08EC2801200E4
:100C6A00A3C08BF0A4C08CF0A5C083F0000E0001D5
:100C7A00846FA6C081F0000E826F8F6B906B81C06B
:100C8A0004F082C005F0A3C000F0A4C001F047EC54
:100C9A0000F000C0A1F001C0A2F083C004F084C03B
:100CAA0005F062EC00F000C07DF001C07EF083C068
:100CBA0000F084C001F001320032019E013200329C
:100CCA00019E01320032019EA1C004F0A2C005F0CB
:100CDA0062EC00F000C07BF001C07CF09A949A921A
:100CEA009A909A989184918291809188FF0E996E38
:100CFA0091988EDD91888CDD810ED96F29EC00F0F8
:100D0A00A6C004F0000E056E8BC000F08CC001F086
:100D1A0047EC00F000C0B8F001C0B9F0430E000182
:100D2A00BA6F86EC01F0A1C0B8F0A2C0B9F0410ECA
:100D3A000001BA6F86EC01F000017B517D25B26F8C
:100D4A007C517E21B36F856B866B7DC08DF07EC032
:100D5A008EF0AF6BB06BB16B8CDD900E00017F6FC4
:100D6A00B86BB96B420EBA6F86EC01F07DC0B8F071
:100D7A007EC0B9F0400E0001BA6F86EC01F0120095
:100D8A007DDE00019451005CA76F95510158A86F50
:100D9A0095DE00018751005CA96F88510158AA6F3E
:100DAA00A7C000F0A8C001F0000EA8BFFF0E026E97
:100DBA00036E98C004F099C005F0000E066E076E27
:100DCA0087DD9451895D046E95518A59056E000E2E
:100DDA00066E076EA6DD00C0A7F001C0A8F0A9C084
:100DEA0000F0AAC001F0000E0001AABFFF0E026EB9
:100DFA00036E9DC004F09EC005F0000E066E076EDD
:100E0A0067DD87519F5D046E8851A059056E000EFB
:100E1A00066E076E86DD005000019D5DA96F0150C8
:100E2A009E59AA6F800EA819006E800E005C02E11E
:100E3A00000EA75D07E39951A85D02E19851A75DED
:100E4A0001E203D0010E006E66D0800EAA19006E70
:100E5A00800E005C02E1000EA95D07E39E51AA5DC7
:100E6A0002E19D51A95D01E203D0010E006E53D04B
:100E7A009151A75D016E9251A859026E01C0ABF063
:100E8A0002C0ACF09651A95DAD6F9751AA59AE6FE9
:100E9A00A7C091F0A8C092F0A9C096F0AAC097F096
:100EAA00800E000A006E800E0218005C02E10150FA
:100EBA0005081DE3800E000A006E800EAE19005C64
:100ECA0002E1AD51050813E3800EAC19006E7F0EE6
:100EDA00005C02E1FB0EAB5D0AE3800EAE19006E08
:100EEA007F0E005C02E1FB0EAD5D01E303D0010E53
:100EFA00006E11D0A3C0E1FFA4C0E2FFA7C0E6FFC5
:100F0A00A8C0E6FFA5C0E1FFA6C0E2FFA9C0E6FFB0
:080F1A00AAC0E6FF006A120004
:100F22008F968F986EDC79C0E1FF7AC0E2FF93C0A2
:100F3200E6FF77C000F078C001F0D0EC00F001507D
:100F420000019B5D02E100509A5D010ED8B0000ED7
:100F5200A36F57DC79C0E1FF7AC0E2FF93C0E6FFDE
:100F620077C000F078C001F0D0EC00F00150000131
:100F72009B5D02E100509A5D010ED8B0000E026E38
:0C0F82000250A315006E00C0A3F0120086
:100F8E00A6C0D9F029EC00F0A5C000F0000E016E4D
:100F9E00A1C004F0A2C005F062EC00F00001A45163
:100FAE000024B86F000E0120B96F8D51B8278E51F5
:100FBE00B923200EA35F240EBA6F86EC01F0A3C0F6
:100FCE00D6F08AEC00F0C40E0001D96F29EC00F0C7
:020FDE001200FF
:100FE0008F968F9898969898840E00019A6F030EAA
:100FF0009B6FA3C098F0A4C099F0A5C09DF0A6C0B7
:101000009EF0A7C09CF0A8C093F0916B926B966B7A
:04101000976B1200C8
:0A101400A3C09AF0A4C09BF01200E4
:10101E000001AF6BB06B7E0EB16F000EB26F010EA2
:10102E00B36F000EB46F7F0EB56F000EB66F080E65
:10103E00B76F1BEC04F0330EAF6F000EB06F060EE1
:10104E00B16F060EB26F010EB36F56DD8ADD2B0E39
:10105E000B6E9D0E0C6EF90E0D6E0D2EFED70C2E18
:10106E00FCD70B2EFAD7AF6BB06BB16B7B517D25D6
:10107E00B26F7C517E21B36F3EEC04F0EE0E000198
:10108E00AF6F000EB06F010EB16F000EB26FF00EAB
:10109E00B36F000EB46FB56BB66B080EB76F1BEC6B
:1010AE0004F01B0EAF6F000EB06F060EB16F060E82
:1010BE00B26F010EB36F20DD87DD5C0E0B6E510E2D
:1010CE000C6E600E0D6E0D2EFED70C2EFCD70B2E59
:0610DE00FAD70000120029
:1010E400CFEC0BF00F01256B246B236B258125833B
:1010F40092809282A9DD9A9691969A9A919A9A9C54
:10110400919C9494949298908B948B928F90F00EDF
:10111400A36F000EA46F800EA56F080EA66FA3DD4B
:1011240000017F877FC0D9F029EC00F000017F85A2
:101134007FC0D9F029EC00F000017F937FC0D9F083
:1011440029EC00F0F00E0001A36F000EA46F800ED6
:10115400A56F000EA66FA76B010EA86F3FDFF40EFC
:10116400A36F010EA46F54DF7F877FC0D9F029ECF1
:1011740000F000017F857FC0D9F029EC00F0000168
:10118400AF6BB06BB16B7B517D25B26F7C517E210F
:10119400B36F3EEC04F0550E0001AF6F000EB06F5C
:1011A400080EB16F060EB26F010EB36FAADC7A0E91
:1011B4000B6EC10E0C6E810E0D6E0D2EFED70C2E15
:1011C400FCD70B2EFAD7000000000001AF6BB06B08
:1011D400B16B7B517D25B26F7C517E21B36F3EECA8
:1011E40004F01BDFAF6BB06BB16B7B517D25B26F2D
:1011F4007C517E21B36F3EEC04F0450E0001AF6FCD
:10120400000EB06F070EB16F060EB26F010EB36F12
:1012140078DC3D0E0B6EE10E0C6E3F0E0D6E0D2E46
:10122400FED70C2EFCD70B2EFAD7000000000001CD
:10123400AF6BB06BB16B7B517D25B26F7C517E215E
:10124400B36F3EEC04F00001AF6BB06BB16BB26BEB
:101254002A0EB36F000EB46F070EB56F000EB66F93
:10126400080EB76F1BEC04F0610EAF6F000EB06F89
:10127400B16BB26BB36B45DCC80E0001AF6F000EEF
:10128400B06FB16BB26BF00EB36F000EB46F070E9C
:10129400B56F000EB66F080EB76F1BEC04F06D0E41
:1012A400AF6F000EB06F190EB16FB26BB36B29DC68
:1012B400390E0001AF6F000EB06FB16BB26B410E0F
:1012C400B36F000EB46F070EB56F000EB66F080E45
:1012D400B76F1BEC04F0520EA36F070EA46FA56B3F
:1012E400A66B53DE490E0001AF6F000EB06FB16BF9
:1012F400B26B510EB36F000EB46F070EB56F000ED4
:10130400B66F080EB76F1BEC04F0470EA36F090EFF
:10131400A46FA56BA66B39DE590E0001AF6F000EEA
:10132400B06FB16BB26B610EB36F000EB46F070E8A
:10133400B56F000EB66F080EB76F1BEC04F0420ECB
:10134400A36F0B0EA46FA56BA66B1FDE690E0001C5
:10135400AF6F000EB06FB16BB26B910EB36F000E36
:10136400B46F070EB56F000EB66F080EB76F1BECA7
:1013740004F0670EAF6F000EB06F0D0EB16FB26B5D
:10138400B36B83EC05F0010E0001806FC8DD0052E1
:10139400D8B4D2D1750EA36F000EA46F730EA56FCF
:1013A400000EA66FF0DC0050000AD8A4C5D1000ED0
:1013B400765D02E1200E755DD8B0C2D0000E745D7A
:1013C40002E1080E735DD8B0BBD0AF6BB06BB16BEC
:1013D4007B517D25B26F7C517E21B36F3EEC04F0CE
:1013E4000001AF6BB06BB16BB26B2A0EB36F000E22
:1013F400B46F070EB56F000EB66F080EB76F1BEC17
:1014040004F0610EAF6F000EB06FB16BB26BB36BD3
:1014140083EC05F0C80E0001AF6F000EB06FB16B26
:10142400B26BF00EB36F000EB46F070EB56F000E03
:10143400B66F080EB76F1BEC04F080530BE06D0E13
:10144400AF6F000EB06F190EB16FB26BB36B83EC5C
:1014540005F00BD0150E0001AF6F000EB06F190E22
:10146400B16FB26BB36B83EC05F0390E0001AF6F53
:10147400000EB06FB16BB26B410EB36F000EB46F60
:10148400070EB56F000EB66F080EB76F1BEC04F0B5
:10149400520EA36F070EA46FA56BA66B76DD490EE3
:1014A4000001AF6F000EB06FB16BB26B510EB36F32
:1014B400000EB46F070EB56F000EB66F080EB76F4F
:1014C4001BEC04F0470EA36F090EA46FA56BA66B6B
:1014D4005CDD590E0001AF6F000EB06FB16BB26BE3
:1014E400610EB36F000EB46F070EB56F000EB66FCA
:1014F400080EB76F1BEC04F0420EA36F0B0EA46F23
:10150400A56BA66B42DD690E0001AF6F000EB06FD4
:10151400B16BB26B910EB36F000EB46F070EB56F63
:10152400000EB66F080EB76F1BEC04F02D0EAF6FF4
:10153400000EB06F0D0EB16FB26BB36B83EC05F0A0
:10154400000E006E00017651005C02E17551C9087D
:101554003DE2000E745D02E1080E735D37E28053D4
:101564001AE0806B150EAF6F000EB06F190EB16FDD
:10157400B26BB36B83EC05F00D0E0B6E2D0E0C6E7F
:10158400D70E0D6E0D2EFED70C2EFCD70B2EFAD7D0
:10159400000000001BD0010E0001806F6D0EAF6FC4
:1015A400000EB06F190EB16FB26BB36B83EC05F024
:1015B4000D0E0B6E2D0E0C6ED70E0D6E0D2EFED76E
:1015C4000C2EFCD70B2EFAD700000000000E0001F1
:1015D400765D02E1390E755D1EE3000E006E7651F4
:1015E400005C02E17551410816E3000E006E74516F
:1015F400005C02E1735107080EE38274070E0B6E60
:10160400170E0C6E6A0E0D6E0D2EFED70C2EFCD727
:101614000B2EFAD70000000E765D02E1490E755DCF
:101624001EE3000E006E7651005C02E17551510814
:1016340016E3000E006E7451005C02E1735107085A
:101644000EE38272070E0B6E170E0C6E6A0E0D6E91
:101654000D2EFED70C2EFCD70B2EFAD70000000E51
:10166400765D02E1590E755D1EE3000E006E765143
:10167400005C02E17551610816E3000E006E7451BE
:10168400005C02E1735107080EE38670070E0B6ECF
:10169400170E0C6E6A0E0D6E0D2EFED70C2EFCD797
:1016A4000B2EFAD70000000E765D02E1690E755D1F
:1016B40020E3000E006E7651005C02E17551920841
:1016C40018E3000E006E7451005C02E173510708C8
:1016D40010E3827482728670070E0B6E170E0C6E06
:1016E4006A0E0D6E0D2EFED70C2EFCD70B2EFAD7DC
:1016F4000000000E006E7451005C02E17351080892
:101704001BE280530DE075C0CDF076C0CEF073C0FF
:10171400CFF074C0D0F0080ED16FE5EC00F00CD01F
:1017240075C0CDF076C0CEF073C0CFF074C0D0F0E9
:0C1734000001D16BE5EC00F029D6FFD7D6
:10179E0010EE15F05E0E006E010E016E400EF66E2E
:0E17AE00170EF76E000EF86E1EEC06F012001D
:0617400057524954450018
:10174600544F55434820555050455220524947481A
:0217560054003D
:061758004C696768740093
:10175E00544F55434820424F54544F4D204C45460C
:02176E00540025
:101770005752495445204F4E2053435245454E0041
:0C17800043414C4942524154494F4E0035
:06178C00434C45415200F0
:061792004C696768740059
:06179800455241534500DB
:020000040030CA
:0E00000015137F7CF98B91FFFFC0FFE0FF40DE
:00000001FF
