:1000000040EFFEF00000000000EF00F000000000F4
:0A0010000000000000000000F3D71C
:020000040001F9
:10FC8000190EAF6EAC847BD8670EA56F720EA66F8F
:0EFC9000A2D8005202E0BCD801D072D9FFD732
:10FC9E00F2CF03F0F29EADC0F6FFAEC0F7FFAFC0DD
:10FCAE00F8FF7F8EBF0E7F167F847F88550E7E6E87
:10FCBE00AA0E7E6E7F8200000A000000026AB1C0AA
:10FCCE00E9FFB2C0EAFF010E025C16E2016A800E85
:10FCDE00015C07E2EECFF5FF00000F000000012AE5
:10FCEE00F6D77F8EBF0E7F167F84550E7E6EAA0EC0
:10FCFE007E6E7F82022AE7D77F9403BE02D0F29EE9
:06FD0E0001D0F28E12008C
:0EFD1400ACB202D00000FCD7ACC0ADFF1200B4
:10FD2200800E0001AD6FFF0EAE6F010EAF6F000EC1
:10FD3200B06F150EB16F000EB26FB0DF400E156ED0
:0EFD4200EF0E166EFE0E176EF00E186E12000B
:0AFD5000000E9EBA010E006E1200B4
:10FD5A00AECF01F0ABA202D0AB98AB8801C000F0E5
:02FD6A00120085
:10FD6C004E0E0C6EEB0E0D6E0D2EFED70C2EFCD720
:02FD7C00120073
:10FD7E00140E00019D6FFD0E9E6FAC0E9F6F000E58
:10FD8E00A06F5A0EA16FFD0EA26F000EA36F000E94
:10FD9E00A46F500E956FFD0E966F000E976F000EAE
:10FDAE00986FFF0E996FFF0E9A6F000E9B6F000EED
:10FDBE009C6FAC8A900EAB6E948E949C9EAA03D0D0
:08FDCE00AECF00F0FBD71200DC
:10FDD6000001A76BA86BC7DFA5C0ACF098DFC3DF37
:10FDE6000001A74BA82BA851020A02E1000EA71991
:10FDF60002E1006A09D0AEDF00500001A61903E156
:0AFE0600010E006E01D0E7D71200D4
:10FE10000001A76BA86BA96BAA6BAB6BA751800AFB
:10FE20002CE1A851A911AA11AB1101E17ADF800ED2
:10FE30000001AB19006E800E000A005C08E1010EA3
:10FE4000AA5D05E1FC0EA95D02E1800EA85D0DE250
:10FE5000A8C0ADF0A9C0AEF0AAC0AFF0ABC0B0F082
:10FE6000150EB16F000EB26F1ADF0001A76B800E86
:10FE7000A827000EA923AA23AB23790EAC6F4ADF73
:10FE800067DF005201E1FCD768DF00C0A6F0780E02
:10FE90000001AC6F3FDF5CDF005201E1FCD75DDFAA
:10FEA00000C0A5F0150EE16E000EE26E0001A75134
:10FEB000E126D8B0E22AA6C0E6FFA72B150EE16E18
:10FEC000000EE26EA751E126D8B0E22AA5C0E6FFF7
:06FED000A72BA4D71200CD
:02FF800012006D
:020000040030CA
:0E00000015137F7CF08A91FFFFC0FFE0FF40E8
:00000001FF
