:1000000042EF31F00000000000EF00F000000000BF
:0A0010000000000000000000F3D71C
:10001C009180FF0E996E9192030E8714016E015020
:0A002C00030A01E0F9D791821200E7
:0E003600030E0D6E0D2EFED70000000012000E
:10004400EBDF996AE9CD87FF9194F3DFF2DFF1DF0B
:040054009184120081
:100058000B6A0A6A096A00500402F4CF09F0F3CF68
:1000680008F001500502F4CF0BF0F3CF0AF000506E
:100078000502F3500926F4500A22E86A0B220150BF
:100088000402F3500926F4500A22E86A0B2208C039
:1000980000F009C001F00AC002F00BC003F0120022
:1000A800086A096A100E0C6E0134083609360450C5
:1000B800085E0550D8A0053C095ED8B007D00450AA
:1000C80008260550D8B0053C0926D89000360136D8
:0600D8000C2EEAD7120015
:1000DE009EDFC50E0D01E96FAEDFFF0E996EA4DF38
:1000EE00919091929184A0DF9FDF9EDF87CFE8FDF4
:0800FE008EDFE8CD00F01200D6
:100106009190996AE8CD87FF919492DF91DF90DF15
:0401160091841200BE
:10011A000301E4510D01E05D04E10301E3510D0126
:10012A00DF5D01E3A1D00301E6510D01E25D04E1C7
:10013A000301E5510D01E15D01E396D0800EE0195E
:10014A00006E800E005C02E1000EDF5D01E28CD0E1
:10015A00800EE219006E800E005C02E1000EE15D85
:10016A0001E282D0F9C304F0FAC305F0DFCD00F052
:10017A00E0CD01F094DF00C0E4FDE1CD00F0E2CD76
:10018A0001F0FBC304F0FCC305F061DFE451002673
:10019A00000E01220301F5510024036EF6510120DD
:1001AA00046E04C000F0016A00C0E5FD03C0E8FD6A
:1001BA00A5DFE5CDE8FDA2DF240E0D01E96F3DDFE5
:1001CA000D01E351020A36E124DF84DF00C0E6FDB7
:1001DA00F9C304F0FAC305F0DFCD00F0E0CD01F079
:1001EA005EDF08C000F009C001F000500301F95DAC
:1001FA00006E000600C001F0010E006E015004E01E
:10020A0000360090FF0FFBD700C0E7FD0D01E65155
:10021A00001607E0E71D006E00C0E7FD0050E61774
:10022A0002D0E751E613E6CDE8FD68DFC40EE96FB8
:10023A0004DF1AD0F00E0D01E311E96FF9C304F0DF
:10024A00FAC305F0DFCD00F0E0CD01F028DF08C0E9
:10025A0000F009C001F000500301F95D006E0006CC
:0A026A0000500D01E913E9DE120057
:100274000D01CC51D05D016ECD51D159026E01C03A
:10028400D7FD02C0D8FDCA51CE5DD96FCB51CF592D
:10029400DA6F800E0218006E800E005C02E1000E20
:1002A400015C0BE2D7510008D76FD851000ED85724
:1002B400FF0EDD6FFF0EDE6F04D0010EDD6F000E4A
:1002C400DE6F800EDA19006E800E005C02E1000E13
:1002D400D95D0BE2D9510008D96FDA51000EDA5713
:1002E400FF0EDB6FFF0EDC6F04D0010EDB6F000E20
:1002F400DC6FD737D791D837D937D991DA37CACD08
:10030400DFFDCBCDE0FDCCCDE1FDCDCDE2FDD2CD09
:10031400E3FD01DF800E0D01D819006E800EDA199D
:10032400005C02E1D951D75D42E2D9CD00F0DACDCB
:1003340001F001320032019E01BC018E0050D75DF4
:10034400D36F0150D859D46F0D01CB51CF1902E1AD
:10035400CE51CA192BE0800ED419006E800E005CB9
:1003640002E1000ED35D08E3DD51CC27DE51CD233D
:10037400D951D35FDA51D45BDB51CA25006EDC510D
:10038400CB21016E00C0CAFD01C0CBFDD751D327DC
:10039400D851D42300C0DFFD01C0E0FDCCCDE1FD88
:1003A400CDCDE2FDD2CDE3FDB6DECED742D0D7CD62
:1003B40000F0D8CD01F001320032019E01BC018E63
:1003C40000500D01D95DD56F0150DA59D66F0D017A
:1003D400CD51D11902E1D051CC192BE0800ED619A0
:1003E400006E800E005C02E1000ED55D08E3DB5177
:1003F400CA27DC51CB23D751D55FD851D65BDD5109
:10040400CC25006EDE51CD21016E00C0CCFD01C0B3
:10041400CDFDD951D527DA51D623CACDDFFDCBCDB9
:10042400E0FD00C0E1FD01C0E2FDD2CDE3FD73DEDD
:04043400CED712000D
:10043800800E0D01C619006E800EC219005C02E123
:10044800C151C55D17E3C1CDCAFDC2CDCBFDC3CD3A
:10045800CCFDC4CDCDFDC1CDCEFDC2CDCFFDC7CD28
:10046800D0FDC8CDD1FDC9CDD2FD00DF0D01C14BF6
:06047800C22BDED71200CA
:10047E00C2CD00F0016A00C0C4FDC1CDE8FD3CDE76
:0E048E00C4CDE8FD39DEC3CDE9FDD5DD120099
:10049C009DCDE9FDD1DD9CCD00F0000E016EFBC3BE
:1004AC0004F0FCC305F0D2DD0D019B510024C16F9B
:1004BC00000E0120C26F040103510D01C12704017C
:1004CC0004510D01C223240EC36FD3DF99CDE9FF74
:1004DC009ACDEAFFEE520FE099CDE9FF9ACDEAFFF3
:1004EC00200EEE5C0D01E86F08DE994B9A2BC00EC6
:0804FC00E96FA2DDEBD712004D
:1005040099CDCAFD9ACDCBFD9BCDCCFD9CCDCDFD27
:100514009DCDCEFD9ECDCFFD9BCDD0FD9CCDD1FDFF
:10052400A1CDD2FDA5DE9DCDCAFD9ECDCBFD9BCD3B
:10053400CCFD9CCDCDFD9DCDCEFD9ECDCFFD9FCDE3
:10054400D0FDA0CDD1FDA1CDD2FD92DE9DCDCAFDC1
:100554009ECDCBFD9FCDCCFDA0CDCDFD99CDCEFDC7
:100564009ACDCFFD9FCDD0FDA0CDD1FDA1CDD2FDA3
:100574007FDE99CDCAFD9ACDCBFD9FCDCCFDA0CD1C
:10058400CDFD99CDCEFD9ACDCFFD9BCDD0FD9CCD9B
:0A059400D1FDA1CDD2FD6CDE1200F6
:10059E000D01B86BB96BB66BB76B0301E4510D016E
:1005AE009A5D04E10301E3510D01995D17E2030128
:1005BE00E6510D019C5D04E10301E5510D019B5DCA
:1005CE000DE2000E9E1902E1000E9D1907E0000ECD
:1005DE00A01902E1000E9F1901E001D0B1D19D5189
:1005EE009925016E9E519A21026E02500301E45D1F
:1005FE0002E10150E35D0BE20D0199510301E35D50
:10060E000D019D6F9A510301E4590D019E6F0D016D
:10061E009F519B25016EA0519C21026E0250030139
:10062E00E65D02E10150E55D0BE20D019B51030118
:10063E00E55D0D019F6F9C510301E6590D01A06F01
:10064E000D01F9C304F0FAC305F099CD00F09ACD6F
:10065E0001F023DD08C000F009C001F000C0BAFDB2
:10066E009D519925BF6F9E519A21C06FF9C304F019
:10067E00FAC305F0BFCD00F0C0CD01F00EDD08C00D
:10068E0000F009C001F000C0BBFDF9C304F0FAC3CD
:10069E0005F099CD00F09ACD01F0FFDC00C0B0FD61
:1006AE0001C0B1FD010EBF5D006E000EC059016E9E
:1006BE00F9C304F0FAC305F0F0DC00C0B2FD01C0CE
:1006CE00B3FDF9C304F0FAC305F0A1CD00F0A2CD3D
:1006DE0001F0E3DC08C000F009C001F0000E026E6C
:1006EE000150025C02E10050000810E2F9C304F070
:1006FE00FAC305F0A1CD00F0A2CD01F0CEDC010EC3
:10070E000024B46F000E0120B56F0DD0F9C304F0B4
:10071E00FAC305F0A1CD00F0A2CD01F0BEDC00C001
:10072E00B4FD01C0B5FDAE6BAF6BAA6BAB6BA05148
:10073E00AB5D02E19F51AA5DD8B002D1B86BB66B2A
:10074E00B76BB0CDACFDB1CDADFDAD51B35D02E13A
:10075E00AC51B25DD8A0EDD0F9C304F0FAC305F0E8
:10076E0099CD00F09ACD01F098DCAC510024A86F21
:10077E00AD510120A96FB051A85FB151A95BAA512B
:10078E009B25006EAB519C21016EFBC304F0FCC394
:10079E0005F05BDCA8510024C16FA9510120C26F86
:1007AE000301F5510D01C1270301F6510D01C223BD
:1007BE00240EC36F5DDE2BDC0D01A451AB5D02E197
:1007CE00A351AA5D07E2B551B75D02E1B451B65D22
:1007DE0001E202D0B96B14D0B651AE25006EB751FE
:1007EE00AF21016E0050A525F66E0150A621F76EC1
:1007FE00000EA721F86E0900F5CFB9FDB64BB72B49
:10080E00BA5100081CE2BACD00F0B9CDBCFD0050C3
:10081E0004E0BC33BC9FFF0FFBD7BA510301F95D57
:10082E00006E00C001F0B8CD00F0015004E00036BB
:10083E000090FF0FFBD700500D01BC1302D0B9CDB5
:10084E00BCFDAD51B11902E1B051AC191AE1BA516A
:10085E00000817E23DDC00C0BDFD0D01BA510301D9
:10086E00F95D016E01C002F0FF0E016E025004E050
:10087E0001360190FF0FFBD70150001600500D01FD
:10088E00BC13AD51B31902E1B251AC1944E1BB51E5
:10089E00000841E21DDC00C0BDFD0D01BB5103018E
:1008AE00F95D006E00C001F0FF0E006E015004E015
:1008BE0000360090FF0FFBD700500D01BC17000E45
:1008CE000301FA1902E1080EF9190FE1BBCD01F08F
:1008DE00FF0E006E015004E00032009EFF0FFBD7AA
:1008EE0000500D01BD15BE6F14D00D01020EBB25BB
:1008FE00006E016A000E012200C001F0FF0E006EB4
:10090E00015004E00032009EFF0FFBD70050BD15D2
:10091E00BE6FBE51BC13BCCDE8FD83EC00F0C40E1F
:10092E00E96F22EC00F0B9CDB8FD0D01AC4BAD2B4B
:10093E000CD7B451AE27B551AF23AA4BAB2BF7D67C
:02094E00120095
:100950000D019D51995D016E9E519A59026E01C023
:10096000B2FD02C0B3FD800E0218006E800E005C66
:1009700002E1000E015C16E2B2510008036EB3CD35
:1009800004F0000E0456A1CD01F0A2CD02F0013614
:10099000019002360250045C02E10150035C01E266
:1009A0002BD20ED0A1CD01F0A2CD02F001360190E4
:1009B00002360250B35D02E10150B25D01E21CD289
:1009C0009F519B5D016EA0519C59026E01C0B2FD0A
:1009D00002C0B3FD800E0218006E800E005C02E1C2
:1009E000000E015C16E2B2510008036EB3CD04F0B4
:1009F000000E0456A1CD01F0A2CD02F00136019007
:100A000002360250045C02E10150035C01E2F4D1C1
:100A10000ED0A1CD01F0A2CD02F001360190023638
:100A20000250B35D02E10150B25D01E2E5D1A15196
:100A30009925CA6FA2519A21CB6FCA4BCB2B9BCD64
:100A4000CCFD9CCDCDFDA1519D5DCE6FA2519E5997
:100A5000CF6F010ECE5F000ECF5B9BCDD0FD9CCD46
:100A6000D1FDA3CDD2FD06DC0D01A1519925CA6FA0
:100A7000A2519A21CB6FCA4BCB2B9FCDCCFDA0CDE1
:100A8000CDFDA1519D5DCE6FA2519E59CF6F010E3C
:100A9000CE5F000ECF5B9FCDD0FDA0CDD1FDA3CD0D
:100AA000D2FD3AEC01F099CDCAFD9ACDCBFD0D01F6
:100AB000A1519B25CC6FA2519C21CD6FCC4BCD2B4E
:100AC00099CDCEFD9ACDCFFDA1519F5DD06FA251A2
:100AD000A059D16F010ED05F000ED15BA3CDD2FD26
:100AE0003AEC01F09DCDCAFD9ECDCBFD0D01A1518B
:100AF0009B25CC6FA2519C21CD6FCC4BCD2B9DCD96
:100B0000CEFD9ECDCFFDA1519F5DD06FA251A059CA
:100B1000D16F010ED05F000ED15BA3CDD2FD3AECB8
:100B200001F00D01A86BA96BA1519B25006EA2518C
:100B30009C21016EA1519D5D046EA2519E59056ECE
:100B40000450005CAA6F05500158AB6FA151992564
:100B5000026EA2519A21036E0250005CAC6F0350EA
:100B60000158AD6FA1519F5D006EA251A059016E59
:100B70000250005CAE6F03500158AF6F0450005C30
:100B8000B06F05500158B16FA1CDA6FDA2CDA7FD54
:100B9000A1CD00F0A2CD01F000360090013600C0DA
:100BA000A4FD01C0A5FD00500308A46F01C0A5FD70
:100BB000000EA557010EA625016E000EA721026E9C
:100BC000800EA919006E800E0218005C02E101502F
:100BD000A85DD8B011D1A1519925DF6FA2519A21FA
:100BE000E06FA851DF5FA951E05BA1519F5DE16F0C
:100BF000A251A059E26FA651E127A751E223A3CD4C
:100C0000E3FD8DEC00F00D01A1519D5DDF6FA25160
:100C10009E59E06FA851DF27A951E023A1519F5DA4
:100C2000E16FA251A059E26FA651E127A751E2233B
:100C3000A3CDE3FD8DEC00F00D01A1519925DF6FEF
:100C4000A2519A21E06FA851DF5FA951E05BA15149
:100C50009B25E16FA2519C21E26FA651E15FA75154
:100C6000E25BA3CDE3FD8DEC00F00D01A1519D5D94
:100C7000DF6FA2519E59E06FA851DF27A951E023F1
:100C8000A1519B25E16FA2519C21E26FA651E15F2A
:100C9000A751E25BA3CDE3FD8DEC00F00D01A9515E
:100CA000A71902E1A651A8196BE0A1519F5D006E42
:100CB000A251A059016EA6510024DF6FA751012057
:100CC000E06FB051DF5FB151E05BA8510024E16FEC
:100CD000A9510120E26FA3CDE3FD8DEC00F00D01E1
:100CE000A1519F5D006EA251A059016EA651005CFA
:100CF000DF6FA7510158E06FAE51DF5FAF51E05B8E
:100D0000A8510024E16FA9510120E26FA3CDE3FDBA
:100D10008DEC00F00D01A1519B25006EA2519C218C
:100D2000016EA651005CDF6FA7510158E06FAC5116
:100D3000DF5FAD51E05BA851005CE16FA951015844
:100D4000E26FA3CDE3FD8DEC00F00D01A1519B25D9
:100D5000006EA2519C21016EA6510024DF6FA751A5
:100D60000120E06FAA51DF5FAB51E05BA851005C4E
:100D7000E16FA9510158E26FA3CDE3FD8DEC00F0C6
:100D8000800E0D01A519006E800E005C02E1000EC0
:100D9000A45D13E2A8CD00F0A9CD01F000360090CB
:100DA0000136003600900136060E0026000E0122A4
:100DB0000050A4270150A5231CD0A651A85D036EA6
:100DC000A751A959046E03C000F004C001F0003619
:100DD000009001360036009001360A0E0026000E03
:100DE00001220050A4270150A523010EA65F000E8A
:0A0DF000A75BA84BA92BDED612006A
:100DFA000D019D51995D016E9E519A59026E01C075
:100E0A00B2FD02C0B3FD800E0218006E800E005CB7
:100E1A0002E1000E015C16E2B2510008036EB3CD86
:100E2A0004F0000E0456A1CD01F0A2CD02F0013665
:100E3A00019002360250045C02E10150035C01E2B7
:100E4A001DD20ED0A1CD01F0A2CD02F00136019043
:100E5A0002360250B35D02E10150B25D01E20ED2E8
:100E6A009F519B5D016EA0519C59026E01C0B2FD5B
:100E7A0002C0B3FD800E0218006E800E005C02E113
:100E8A00000E015C16E2B2510008036EB3CD04F005
:100E9A00000E0456A1CD01F0A2CD02F00136019058
:100EAA0002360250045C02E10150035C01E2E6D121
:100EBA000ED0A1CD01F0A2CD02F00136019002368A
:100ECA000250B35D02E10150B25D01E2D7D199CD82
:100EDA00C1FD9ACDC2FDA1519B25C36FA2519C2190
:100EEA00C46FC34BC42B9DCDC5FD9ECDC6FDA1517C
:100EFA009F5DC76FA251A059C86F010EC75F000E50
:100F0A00C85BA3CDC9FD1CEC02F0A86BA96BB46B3E
:100F1A00B56BA1519B25006EA2519C21016EA15176
:100F2A009D5D046EA2519E59056E0450005CAA6F25
:100F3A0005500158AB6FA1519925026EA2519A2111
:100F4A00036E0250005CAC6F03500158AD6FA151A3
:100F5A009F5D006EA251A059016E0250005CAE6FF7
:100F6A0003500158AF6F0450005CB06F0550015830
:100F7A00B16FA1CDA6FDA2CDA7FDA1CDB6FDA2CD93
:100F8A00B7FDA1CD00F0A2CD01F0003600900136E8
:100F9A0000C0A4FD01C0A5FD00500308A46F01C054
:100FAA00A5FD000EA557010EA625016E000EA7216C
:100FBA00026E800EA919006E800E0218005C02E112
:100FCA000150A85DD8B0F9D0B751A71902E1A651CE
:100FDA00B61959E0A1519925CA6FA2519A21CB6F2E
:100FEA00B451CA5FB551CB5BA1519F5D006EA2514E
:100FFA00A059016EB6510026B751012200C0CCFD9E
:10100A0001C0CDFDA1519D5DCE6FA2519E59CF6FFA
:10101A00B451CE27B551CF2300C0D0FD01C0D1FDB8
:10102A00A3CDD2FD3AEC01F00D01A1519925CA6F69
:10103A00A2519A21CB6FB451CA5FB551CB5BA15172
:10104A009B25006EA2519C21016EB651005EB751DC
:10105A00015A00C0CCFD01C0CDFDA1519D5DCE6FEE
:10106A00A2519E59CF6FB451CE27B551CF2300C09C
:10107A00D0FD01C0D1FDA3CDD2FD3AEC01F0A6CD41
:10108A00B6FDA7CDB7FD0D01A1519F5D026EA2511C
:10109A00A059036EA6510224CA6FA7510320CB6F31
:1010AA00B051CA5FB151CB5BA8510224006EA9515D
:1010BA000320016E00C0CCFD01C0CDFDA651025C2B
:1010CA00CE6FA7510358CF6FAE51CE5FAF51CF5BF2
:1010DA0000C0D0FD01C0D1FDA3CDD2FD3AEC01F094
:1010EA000D01A1519B25026EA2519C21036EA651AE
:1010FA00025CCA6FA7510358CB6FAC51CA5FAD519E
:10110A00CB5BA851025C006EA9510358016E00C066
:10111A00CCFD01C0CDFDA6510224CE6FA7510320FC
:10112A00CF6FAA51CE5FAB51CF5B00C0D0FD01C0DB
:10113A00D1FDA3CDD2FD3AEC01F0800E0D01A51927
:10114A00006E800E005C02E1000EA45D13E2A8CDE1
:10115A0000F0A9CD01F0003600900136003600906B
:10116A000136060E0026000E01220050A427015067
:10117A00A52320D0A651A85D036EA751A959046ED4
:10118A0003C000F004C001F00036009001360036BA
:10119A00009001360A0E0026000E01220050A427F4
:1011AA000150A523010EA65F000EA75BA8CDB4FDD2
:1011BA00A9CDB5FDA84BA92BF6D6010EA85D016EE7
:1011CA00000EA959026E0250B71902E1B651011870
:1011DA0055E0A1519925CA6FA2519A21CB6FB451FA
:1011EA00CA5FB551CB5BA1519F5D006EA251A05958
:1011FA00016EB6510026B751012200C0CCFD01C0D4
:10120A00CDFDA1519D5DCE6FA2519E59CF6FB451B4
:10121A00CE27B551CF2300C0D0FD01C0D1FDA3CD4B
:10122A00D2FD3AEC01F00D01A1519925CA6FA251E4
:10123A009A21CB6FB451CA5FB551CB5BA1519B25A3
:10124A00006EA2519C21016EB651005EB751015A3F
:10125A0000C0CCFD01C0CDFDA1519D5DCE6FA25154
:10126A009E59CF6FB451CE27B551CF2300C0D0FDC0
:0E127A0001C0D1FDA3CDD2FD3AEC01F012006F
:10128800020E0D019725E96E000E9821EA6EEECF49
:1012980001F001C099FD000E9A6F030E9725E96EC3
:1012A800000E9821EA6EEECF00F000C09BFD000E04
:1012B8009C6F040E9725D96E000E9821DA6EDE50C9
:1012C80001249D6F9E6B000E9E23010E9D5F000EF4
:1012D8009E5B050E9725D96E000E9821DA6EDE50BA
:1012E80000249F6FA06B000EA023010E9F5F000ECD
:0C12F800A05B080EA16F82EC02F0120057
:0E130400570E0D6E0D2EFED7000000001200D9
:10131200060E0D019725E96E000E9821EA6EEECFBA
:1013220099FDEECF9AFD020E9725E96E000E9821E7
:10133200EA6EEECF01F001C09BFD9B339B9F9B3376
:101342009B9F9B339B9F030E9725E96E000E98216E
:10135200EA6EEECF01F001C09CFD9C339C9F9C3352
:101362009C9F9C339C9F810E9D6F4EEC02F012005D
:101372000C0E0D019725E96E000E9821EA6EEE50D3
:10138200010A1CE1040E9725E16E000E9821E26E1F
:10139200060E9725E96E000E9821EA6EEECFE6FF63
:1013A200050E9725E16E000E9821E26E070E972535
:1013B200E96E000E9821EA6EEECFE6FF020E972547
:1013C200E96E000E9821EA6EEECF99FD000E9A6F3B
:1013D200000E9A6F030E9725E96E000E9821EA6EB1
:1013E200EECF9BFD000E9C6F000E9C6F040E9725A6
:1013F200E96E000E9821EA6EEECF9DFD000E9E6F03
:10140200000E9E6F050E9725E96E000E9821EA6E7A
:10141200EECF9FFD000EA06F000EA06F060E972567
:10142200E96E000E9821EA6EEECFA1FD000EA26FCA
:10143200000EA26F070E9725E96E000E9821EA6E44
:10144200EECFA3FD000EA46F000EA46F080E972529
:10145200E96E000E9821EA6EEECFA5FDEECFA6FD55
:0A146200EECFA7FDCFEC02F0120060
:10146C00020E0D019725E96E000E9821EA6EEECF63
:10147C0001F001C0C1FD000EC26F030E9725E96E8D
:10148C00000E9821EA6EEECF00F000C0C3FD000EF6
:10149C00C46F040E9725D96E000E9821DA6EDE50BB
:1014AC000124C56FC66B000EC623010EC55F000E6E
:1014BC00C65B050E9725D96E000E9821DA6EDE50AC
:1014CC000024C76FC86B000EC823010EC75F000E47
:1014DC00C85B080EC96F1CEC02F0040E9725E96E70
:1014EC00000E9821EA6E050EEE5C48E3050E97257A
:1014FC00E96E000E9821EA6E050EEE5C3FE3020EDB
:10150C009725E96E000E9821EA6EEECF01F001509E
:10151C00010F996F9A6B000E9A23030E9725E96EB3
:10152C00000E9821EA6EEECF00F00050010F9B6F79
:10153C009C6B000E9C23040E9725D96E000E9821EF
:10154C00DA6EDE5001249D6F9E6B000E9E23020E00
:10155C009D5F000E9E5B050E9725D96E000E98219F
:10156C00DA6EDE5000249F6FA06B000EA023020EDB
:10157C009F5F000EA05BA16B82EC02F0070E0D01C9
:10158C009725E96E000E9821EA6EEECF99FDEECF0D
:10159C009AFD020E9725E96E000E9821EA6E060E52
:1015AC009725D96E000E9821DA6EDECF05F0055026
:1015BC00EE24006E016A000E0122020E0024036E5E
:1015CC00000E0120046E030E026E03C000F004C076
:1015DC0001F0025007E001320032019E01BC018E85
:1015EC00FF0FF8D70D0100C09BFD030E9725E96E88
:1015FC00000E9821EA6E0550EE24006E016A000E72
:10160C000122020E0024036E000E0120046E030E54
:10161C00026E03C000F004C001F0025007E001327A
:10162C000032019E01BC018EFF0FF8D70D0100C0E6
:0C163C009CFD810E9D6F4EEC02F0120030
:10164800020E0D019725E96E000E9821EA6EEECF85
:1016580001F001C099FD000E9A6F030E9725E96EFF
:10166800000E9821EA6EEECF00F000C09BFD000E40
:101678009C6F040E9725D96E000E9821DA6EDE5005
:1016880001249D6F9E6B000E9E23010E9D5F000E30
:101698009E5B050E9725D96E000E9821DA6EDE50F6
:1016A80000249F6FA06B000EA023010E9F5F000E09
:1016B800A05B070E9725E96E000E9821EA6EEECF23
:1016C800A1FD000EA26F000EA26F080EA36FFDEC25
:1016D80006F0040E0D019725E96E000E9821EA6EBA
:1016E800050EEE5C54E3050E9725E96E000E982171
:1016F800EA6E050EEE5C4BE3020E9725E96E000ECE
:101708009821EA6EEECF01F00150010F996F9A6BA4
:10171800000E9A23030E9725E96E000E9821EA6EB3
:10172800EECF00F00050010F9B6F9C6B000E9C23C6
:10173800040E9725D96E000E9821DA6EDE5001242A
:101748009D6F9E6B000E9E23020E9D5F000E9E5B9A
:10175800050E9725D96E000E9821DA6EDE5000240A
:101768009F6FA06B000EA023020E9F5F000EA05B70
:10177800070E9725E96E000E9821EA6EEECFA1FDBF
:10178800000EA26F000EA26FA36BA8EC04F0080E67
:101798009725E96E000E9821EA6EEECF99FDEECFFF
:1017A8009AFD020E9725E96E000E9821EA6E060E44
:1017B8009725D96E000E9821DA6EDECF05F0055018
:1017C800EE24006E016A000E0122020E0024036E50
:1017D800000E0120046E030E026E03C000F004C068
:1017E80001F0025007E001320032019E01BC018E77
:1017F800FF0FF8D700C09BFD030E9725E96E000E7A
:101808009821EA6E0550EE24006E016A000E01224E
:10181800020E0024036E000E0120046E030E026EF9
:1018280003C000F004C001F0025007E001320032AA
:10183800019E01BC018EFF0FF8D700C09CFD810EF0
:081848009D6F4EEC02F012004E
:1018500090CD04F091CD05F004C0E9FF05C0EAFF8A
:10186000EE5203E0044A052AF7D704C002F005C08F
:1018700003F0044A052A92CD00F093CD01F00D014A
:10188000924B932B00C0E9FF01C0EAFF02C0E1FFC9
:1018900003C0E2FFEECFE6FF02C0E9FF03C0EAFFAC
:1018A000EE5201E0E2D790CD00F091CD01F01200B0
:1018B0000D01906B916B1BC7E9FF1CC7EAFFEECFD0
:1018C00001F0EECF02F00250915D02E10150905D17
:1018D00032E2020E07011B25E96E000E1C21EA6EA2
:1018E000EECF03F0EECF04F090CD00F091CD01F0FB
:1018F00000360090013600500324E96E01500420A8
:10190000EA6EEECF00F0EECF01F000C092FD01C014
:1019100093FD0F0E0024E96E000E0120EA6EEE50DA
:10192000010A05E192CD97FD93CD98FDF2DC0D0102
:08193000904B912BC0D712006F
:1019380090CD02F091CD03F002C000F003C001F099
:10194800024A032A00C0E9FF01C0EAFFEE5201E0A3
:10195800F3D70D019051025C006E91510358016E4E
:0A196800010E005E000E015A12008D
:101972000D0190515A0804E3410E905DD8B0908B4E
:0619820090CD00F0120000
:1019880090CD04F091CD05F004C002F005C003F03D
:10199800044A052A92CD00F093CD01F00D01924B37
:1019A800932B00C0E9FF01C0EAFF02C0E1FF03C0BA
:1019B800E2FFEECFE6FF02C0E9FF03C0EAFFEE5206
:0E19C80001E0E2D790CD00F091CD01F01200C9
:1019D6000D01906B916B040E07011B25D96E000E4D
:1019E6001C21DA6EDECF01F0DECF02F002500D01CF
:1019F600915D02E10150905D32E2060E07011B2562
:101A0600E96E000E1C21EA6EEECF03F0EECF04F075
:101A160090CD00F091CD01F00036009001360050D7
:101A26000324E96E01500420EA6EEECF00F0EECFFB
:101A360001F000C092FD01C093FD0B0E0024E96E7B
:101A4600000E0120EA6EEE50010A05E192CD97FDE7
:101A560093CD98FD8BDC0D01904B912BBCD71200DA
:101A66000D01906B916B080E07011B25D96E000EB8
:101A76001C21DA6EDECF01F0DECF02F002500D013E
:101A8600915D02E10150905D32E20A0E07011B25CD
:101A9600E96E000E1C21EA6EEECF03F0EECF04F0E5
:101AA60090CD00F091CD01F0003600900136005047
:101AB6000324E96E01500420EA6EEECF00F0EECF6B
:101AC60001F000C092FD01C093FD100E0024E96EE6
:101AD600000E0120EA6EEE50010A05E192CD97FD57
:101AE60093CD98FDC0DC0D01904B912BBCD7120015
:101AF6000D01906B916B0C0E07011B25D96E000E24
:101B06001C21DA6EDECF01F0DECF02F002500D01AD
:101B1600915D02E10150905D32E20E0E07011B2538
:101B2600E96E000E1C21EA6EEECF03F0EECF04F054
:101B360090CD00F091CD01F00036009001360050B6
:101B46000324E96E01500420EA6EEECF00F0EECFDA
:101B560001F000C092FD01C093FD110E0024E96E54
:101B6600000E0120EA6EEE50010A05E192CD97FDC6
:101B760093CD98FD66DD0D01904B912BBCD71200DD
:101B86000D01906B916B100E07011B25D96E000E8F
:101B96001C21DA6EDECF01F0DECF02F002500D011D
:101BA600915D02E10150905D33E2120E07011B25A3
:101BB600E96E000E1C21EA6EEECF03F0EECF04F0C4
:101BC60090CD00F091CD01F0003600900136005026
:101BD6000324E96E01500420EA6EEECF00F0EECF4A
:101BE60001F000C092FD01C093FD060E0024E96ECF
:101BF600000E0120EA6EEE50010A06E192CD97FD35
:101C060093CD98FD44EC09F00D01904B912BBBD779
:021C16001200BA
:101C1800C30EC21690CD00F000360090003600903A
:101C28000050C21282EC09F0C282C2A201D0FDD7D4
:101C3800C4CF01F0006A00C091FD01C092FDC350FD
:101C48000012000E011200C091FD01C092FD000EAD
:101C58000014026E0150800B036E000E031802E19F
:101C6800000E021803E00D01916B926B91CD00F00C
:061C780092CD01F0120004
:101C7E000D01956B966B0EEC00F00D019151030169
:101C8E00F5250D01C16F92510301F6210D01C26FB1
:101C9E00240EC36F3FEC02F0B00E0D01E96F22EC83
:101CAE0000F09190996A0D019451965D02E1935165
:101CBE00955D0DE290CD87FF91941BEC00F01BEC2F
:101CCE0000F01BEC00F09184954B962BECD7B20EE6
:081CDE00E96F22EC00F0120096
:101CE600829486908282DF0E0D01996F020E9A6FA2
:101CF6000A0E9B6F060E9C6F810E9D6F4EEC02F0D6
:021D06001200C9
:101D0800829486808292180E0D01996F030E9A6F45
:101D18000A0E9B6F060E9C6F810E9D6F4EEC02F0B3
:021D28001200A7
:101D2A000D01906B916B926BD9C393FDDAC394FD4D
:101D3A00A1DF0D01906BD9C391FDDAC392FDDBC31C
:101D4A0093FDDCC394FD96DF8CCD1BF78DCD1CF77C
:0C1D5A003DDE84DECBDE12DFA6DD1200D1
:101D6600200E0D018E6F8F6B040100B105D08CCD56
:101D760090FDFCDD00C08CFD0D01EB0E906F020E98
:101D8600916FD7DD00C08DFD150E005C19E3C40E02
:101D9600906F000E916F890E926F030E936FF1DDB7
:101DA600EB0E906F020E916FA00E926F030E936F63
:101DB600E8DDF90E976F0C0E986F89EC09F03FD0AD
:101DC600040100A320D00D018D5100081BE28D05F2
:101DD600006E016A000E015AEB0E0024E16E020E3F
:101DE6000120E26EE66AC40E906F000E916F6E0ED1
:101DF600926F030E936FC5DDF90E976F0C0E986FF9
:101E060089EC09F00CD08CCD8EFDEB0E0D01906F98
:101E1600020E916F8E0E926F0D0E936F16DD0D01F1
:101E2600C40E906F000E916FEB0E926F020E936FC1
:101E3600A8DDF90E976F0C0E986F89EC09F0120069
:101E4600829486808282610E0D01996F030E9A6FCD
:101E56000A0E9B6F060E9C6F810E9D6F4EEC02F074
:021E6600120068
:101E6800828486808292A70E0D01996F020E9A6F66
:101E78000A0E9B6F060E9C6F810E9D6F4EEC02F052
:021E8800120046
:101E8A00829486908292B40E0D01996F020E9A6F17
:101E9A000A0E9B6F060E9C6F810E9D6F4EEC02F030
:021EAA00120024
:101EAC00828486908292520E0D01996F030E9A6F66
:101EBC000A0E9B6F060E9C6F810E9D6F4EEC02F00E
:021ECC00120002
:101ECE00828486908282940E0D01996F020E9A6F13
:101EDE000A0E9B6F060E9C6F810E9D6F4EEC02F0EC
:021EEE001200E0
:101EF000F250026EF29E0500FF6A0150FE6E005025
:081F0000FD6E02BEF28E12001C
:101F0800100E0C6E940E0D6E0D2EFED70C2EFCD7F7
:041F180000001200B3
:101F1C004E0E0C6EEB0E0D6E0D2EFED70C2EFCD74E
:021F2C001200A1
:0A1F2E00550E0D018C6F18DF120034
:0A1F3800570E0D018C6F13DF12002D
:0A1F4200510E0D018C6F0EDF12002E
:0A1F4C00450E0D018C6F09DF120035
:101F5600880E0D018C6F090E8D6FE4DE070E0B6E79
:101F6600170E0C6E6A0E0D6E0D2EFED70C2EFCD7BC
:101F76000B2EFAD7000086DF3D0E0B6EE10E0C6EBF
:101F86003F0E0D6E0D2EFED70C2EFCD70B2EFAD75C
:101F96000000000066DF3D0E0B6EE10E0C6E3F0E7C
:101FA6000D6E0D2EFED70C2EFCD70B2EFAD7000089
:101FB60000008ADF3D0E0B6EE10E0C6E3F0E0D6EBD
:101FC6000D2EFED70C2EFCD70B2EFAD700000000E4
:101FD6006ADF3D0E0B6EE10E0C6E3F0E0D6E0D2E82
:101FE600FED70C2EFCD70B2EFAD70000000028DFF8
:101FF6003D0E0B6EE10E0C6E3F0E0D6E0D2EFED7D6
:102006000C2EFCD70B2EFAD7000000007ADE3D0E10
:102016000B6EE10E0C6E3F0E0D6E0D2EFED70C2EC6
:10202600FCD70B2EFAD7000000005ADE3D0E0B6ED1
:10203600E10E0C6E3F0E0D6E0D2EFED70C2EFCD74C
:102046000B2EFAD700000000829486908292010E31
:102056000901576F880E0D018C6F090E8D6F62DEB8
:02206600120066
:0A2068004B0E0D018C6F7BDE1200A1
:0A207200530E0D018C6F76DE120094
:0A207C00490E0D018C6F71DE120099
:0A2086004F0E0D018C6F6CDE12008E
:0A209000520E0D018C6F67DE120086
:10209A00EB0E0D01906F020E916F500E926F030EB0
:1020AA00936F6DDC04010093C40E0D01906F000E56
:1020BA00916F510E926F030E936F61DC1F0E8C6F3E
:0820CA00070E8D6F2DDE1200E0
:0A20D200440E0D018C6F46DE120073
:0A20DC00540E0D018C6F41DE12005E
:0A20E600590E0D018C6F3CDE120054
:1020F0008B748BA40BD04C0E0D01906F010E916F61
:10210000C70E926F020E936F3FDC0CD08BB40AD0D7
:102110000D014C0E906F010E916FCB0E926F020E5F
:10212000936F32DC8F708FA00BD00D01780E906F03
:10213000010E916FBF0E926F020E936F25DC0CD0D3
:102140008FB00AD00D01780E906F010E916FC30E03
:10215000926F020E936F18DC8B728BA20BD00D0165
:102160007C0E906F010E916FD70E926F020E936FDF
:102170000BDC0DD08BB20BD00D017C0E906F010EDD
:10218000916FDB0E926F020E936FC4EC0CF00D0199
:102190000E0E976F0B0E986F89EC09F08C0E0D01E7
:1021A000976F0A0E986F89EC09F0BE0E0D01976FBC
:0A21B000090E986F89EC09F0120087
:1021BA00080E0C6EC10E0D6E0D2EFED70C2EFCD71E
:0621CA00000000001200FD
:1021D000070E0B6E170E0C6E6A0E0D6E0D2EFED7CF
:0C21E0000C2EFCD70B2EFAD700001200CA
:1021EC008F868F9895DEE1C3E1FFE2C3E2FFECC37B
:0E21FC00E6FFDFC300F0E0C301F074DE120066
:10220A008B728BA20CD07C0E0D01906F010E916F18
:10221A00CF0E926F020E936FC4EC0CF00DD08BB2FE
:10222A000BD00D017C0E906F010E916FD30E926F41
:10223A00020E936FC4EC0CF00D01BE0E976F090EDF
:08224A00986F89EC09F0120005
:102252008B748BA40CD04C0E0D01906F010E916FFC
:10226200850E926F030E936FC4EC0CF00DD08BB4FD
:102272000BD00D014C0E906F010E916F320E926FCA
:10228200030E936FC4EC0CF00D010E0E976F0B0E44
:08229200986F89EC09F01200BD
:0E229A001F0E0D018C6F070E8D6F42DD1200BE
:0A22A8004D0E0D018C6F5BDD12007E
:0A22B2004E0E0D018C6F56DD120078
:1022BC008F968F982DDEE1C3E1FFE2C3E2FFE7C307
:1022CC00E6FFDFC300F0E0C301F00CDE01500301B8
:1022DC00E95D02E10050E85D010ED8B0000E0D0181
:1022EC008B6F0CDE0BDEE1C3E1FFE2C3E2FFE7C361
:1022FC00E6FFDFC300F0E0C301F0F4DD01500301A1
:10230C00E95D02E10050E85D010ED8B0000E026EEE
:0E231C0002500D018B15006E00C08BFD1200EB
:10232A000901576B1F0E0D018C6F070E8D6FF8DCBC
:02233A0012008F
:0E233C00570E0D018C6F080E8D6FF1DC120034
:10234A008F808B848B824C0E0D01906F010E916FE2
:10235A004C0E926F030E936FC4EC0CF0780E906FD4
:10236A00010E916F400E926F030E936FC4EC0CF046
:10237A007C0E906F010E916F440E926F030E936F55
:10238A00C4EC0CF00E0E976F0B0E986F89EC09F0E7
:10239A008C0E0D01976F0A0E986F89EC09F0BE0E2C
:0E23AA000D01976F090E986F89EC09F0120073
:1023B8000450085E0550D8A0053C095E0650D8A018
:1023C800063C0A5E0750D8A0073C0B5E0336070E92
:1023D8000C6E0334083609360A360B36045003A04F
:1023E8000ED0085E0550D8A0053C095E0650D8A05E
:1023F800063C0A5E0750D8A0073C0B5E0DD00826A5
:102408000550D8B0053C09260650D8B0063C0A2627
:102418000750D8B0073C0B2603360C2EDAD7023407
:10242800083609360A360B36045003A00ED0085E6B
:102438000550D8A0053C095E0650D8A0063C0A5EA7
:102448000750D8A0073C0B5E0DD008260550D8B021
:10245800053C09260650D8B0063C0A260750D8B0D5
:10246800073C0B260236070E0C6E02340836093676
:102478000A360B36045002A00ED0085E0550D8A0CC
:10248800053C095E0650D8A0063C0A5E0750D8A055
:10249800073C0B5E0DD008260550D8B0053C092630
:1024A8000650D8B0063C0A260750D8B0073C0B2681
:1024B80002360C2EDAD70134083609360A360B36BE
:1024C800045002A00ED0085E0550D8A0053C095E55
:1024D8000650D8A0063C0A5E0750D8A0073C0B5E01
:1024E8000DD008260550D8B0053C09260650D8B0AE
:1024F800063C0A260750D8B0073C0B260136070EC3
:102508000C6E0134083609360A360B36045001A021
:102518000ED0085E0550D8A0053C095E0650D8A02C
:10252800063C0A5E0750D8A0073C0B5E0DD0082673
:102538000550D8B0053C09260650D8B0063C0A26F6
:102548000750D8B0073C0B2601360C2EDAD70034DA
:10255800083609360A360B36045001A00ED0085E3C
:102568000550D8A0053C095E0650D8A0063C0A5E76
:102578000750D8A0073C0B5E0DD008260550D8B0F0
:10258800053C09260650D8B0063C0A260750D8B0A4
:10259800073C0B260036070E0C6E00340836093649
:1025A8000A360B36045000A00ED0085E0550D8A09D
:1025B800053C095E0650D8A0063C0A5E0750D8A024
:1025C800073C0B5E0DD008260550D8B0053C0926FF
:1025D8000650D8B0063C0A260750D8B0073C0B2650
:1025E80000360C2EDAD700B00ED00450082605505D
:1025F800D8B0053C09260650D8B0063C0A26075034
:08260800D8B0073C0B261200BC
:0C261000410E0D018C6FB3EC0EF01200B7
:0C261C00500E0D018C6FB3EC0EF012009C
:102628000B1E0A1E091E081E082AD8B4092AD8B487
:082638000A2AD8B40B2A120093
:102640008F968F886BDCE1C3E1FFE2C3E2FFE7C353
:0E265000E6FFDFC300F0E0C301F04ADC120039
:0C265E00480E0D018C6FB3EC0EF0120062
:0C266A004A0E0D018C6FB3EC0EF0120054
:0C2676005A0E0D018C6FB3EC0EF0120038
:0C2682004C0E0D018C6FB3EC0EF012003A
:10268E00EB0E0D01906F020E916F170E926F030EEF
:10269E00936FC4EC0CF0040100930091D90E0D0160
:1026AE00906F000E916F0D0E926F030E936FC4EC30
:1026BE000CF0E70E8C6F040E8D6F95EC0EF0120081
:0C26CE00580E0D018C6FB3EC0EF01200E2
:1026DA00D70E0D018C6F0C0E8D6F95EC0EF012005B
:0C26EA00460E0D018C6FB3EC0EF01200D8
:0C26F600470E0D018C6FB3EC0EF01200CB
:0C270200200E0D018C6FB3EC0EF01200E5
:10270E008294869082924C0E0D01906F010E916F05
:10271E009F0E926F020E936FC4EC0CF0780E906FBA
:10272E00010E916FA30E926F020E936FC4EC0CF01C
:10273E007C0E906F010E916F900E926F020E936F42
:10274E00C4EC0CF00E0E976F0B0E986F89EC09F01F
:10275E008C0E0D01976F0A0E986F89EC09F0BE0E64
:0E276E000D01976F090E986F89EC09F01200AB
:10277C008F708FA00CD0780E0D01906F010E916FA1
:10278C002E0E926F030E936FC4EC0CF00DD08FB025
:10279C000BD00D01780E906F010E916F480E926F59
:1027AC00030E936FC4EC0CF00D018C0E976F0A0E98
:0827BC00986F89EC09F012008E
:1027C4000401007100A10CD0D90E0D01906F000E10
:1027D400916F360E926F030E936FC4EC0CF00ED013
:1027E400040100B10BD0D90E0D01906F000E916F52
:1027F400240E926F030E936FC4EC0CF00D01510E76
:0C280400976F0D0E986F24EC0BF0120083
:0C281000420E0D018C6FB3EC0EF01200B4
:0C281C00430E0D018C6FB3EC0EF01200A7
:0C282800560E0D018C6FB3EC0EF0120088
:10283400040100830D018C6BB3EC0EF004010093D2
:02284400120080
:10284600580E0D018C6F0A0E8D6F95EC0EF012006E
:1028560032DD005201E1FCD7000E0401061902E147
:10286600800E051918E1000E0301FE1902E1400E63
:10287600FD1911E1B8DC0A0E005C0301ED6F000ED4
:102886000158EE6FDADE0A0E005C0301EF6F000EF0
:102896000158F06F10D0A7DC030E005C0301ED6F4A
:1028A600000E0158EE6FC9DE030E005C0301EF6FE8
:0828B600000E0158F06F120042
:1028BE00000E0D01845D02E18751835D2DE3895188
:1028CE008725006E016A000E0122010E005C026E69
:1028DE00000E0158036E8451035C02E18351025CC9
:1028EE001BE3000E865D02E18851855D15E38A517A
:1028FE008825006E016A000E0122010E005C026E38
:10290E00000E0158036E8651035C02E18551025C94
:0C291E0003E3010E006E01D0006A1200FD
:0A292A0083CDE8F384CDE9F3120039
:102934008F968F9898969898840E0301E86F030EEB
:10294400E96F83CD05F484CD06F485CDFDF386CD02
:10295400FEF387CDECF388CDE7F3F16BF26BF36B09
:04296400F46B1200FE
:10296800A9DC005201E1FCD7000E0401061902E1BE
:10297800800E051918E1000E0301FE1902E1400E50
:10298800FD1911E12FDC050E00240401016F000E72
:102998000120026F51DE050E00240301EA6F000ECC
:1029A8000120EB6F10D01EDC030E00240401016F20
:1029B800000E0120026F40DE030E00240301EA6FBF
:0829C800000E0120EB6F12006C
:1029D0008F968F88000E0401061902E1800E0519FA
:1029E0000AE1000E0301FE1902E1400EFD1903E1A8
:1029F000DDEC10F002D08EEC0FF0E1C3E1FFE2C39A
:102A0000E2FFE7C3E6FFDFC300F0E0C301F078ECCC
:042A10000FF01200B1
:102A1400220E0C6E086A096A0A6A0B6A0C06D8B49C
:102A24001FD0D8900B320A320932083203320232F4
:102A340001320032D8A0F2D70C06D8B409D0045021
:102A440008260550092206500A2207500B22EAD70D
:102A5400045008260550092206500A2207500B226A
:022A640012005E
:102A66000450000A12E10550000A0FE10650000A60
:102A76000CE10750000A09E1FF0E006EFF0E016E21
:102A8600FF0E026E7F0E036E97D00C6A07BE0C2AED
:102A96000D6A0B6A0A6A096A086A03500210011075
:102AA6000010D8B484D0035007180E6E0EBE0D1E4B
:102AB60007AE0BD0041E051E061E071E042AD8B438
:102AC600052AD8B4062AD8B4072A03AE0BD0001EAE
:102AD600011E021E031E002AD8B4012AD8B4022AF7
:102AE600D8B4032A035007100E6E0EBE1CD061DC4C
:102AF6000CBE36D00DAE5BD0001E011E021E031E9C
:102B0600002AD8B4012AD8B4022AD8B4032A081E47
:102B1600091E0A1E0B1E082AD8B4092AD8B40A2A86
:102B2600D8B40B2A44D007AE15D003BE0DD003503F
:102B36000B6E02500A6E0150096E0050086E036A51
:102B4600026A016A006AD6D7036A026A016A006AE3
:102B5600002A000C031E021E011E001E0C8EC7D783
:102B6600082AD8B4092AD8B40A2AD8B40B2A045099
:102B7600085CD8A4BFD70550095CD8A4BBD70650BB
:102B86000A5CD8A4B7D707500B5CD8A4B3D70B6A96
:102B96000A6A096A086A002AD8B4012AD8B4022A3D
:102BA600D8B4032A03AEA6D70E6A0E88FF0C0E6AA7
:0A2BB6000CA001D036DD000F120064
:102BC0008F868F98000E0401061902E1800E051908
:102BD0000AE1000E0301FE1902E1400EFD1903E1B6
:102BE000DDEC10F002D08EEC0FF0E1C3E1FFE2C3A8
:102BF000E2FFECC3E6FFDFC300F0E0C301F078ECD6
:042C00000FF01200BF
:102C0400180E0301DF6F1C0EE06F900EE16F0D0EC6
:0E2C1400E26FC26A0F0EC012C08EC2801200A4
:102C220083CDE3F384CDE4F385CDE5F3000E030118
:102C3200E66F86CDF9F3000EFA6FF76BF86BF9C306
:102C420004F0FAC305F083CD00F084CD01F054EC1A
:102C520000F000C0FBF301C0FCF3E5C304F0E6C3DF
:102C620005F02CEC00F000C0D9F301C0DAF3E5C3A3
:102C720000F0E6C301F001320032019E013200325F
:102C8200019E01320032019EFBC304F0FCC305F039
:102C92002CEC00F000C0DBF301C0DCF39A949A92B2
:102CA2009A909A989184918291809188FF0E996E60
:102CB2009198E8EC10F09188E8EC10F0810E0D018B
:102CC200E96F22EC00F086CD04F0000E056EE3C33E
:102CD20000F0E4C301F054EC00F000C0C1FD01C0FB
:102CE200C2FD430E0D01C36F3FEC02F0FBC3C1FDF9
:102CF200FCC3C2FD410E0D01C36F3FEC02F00301A4
:102D0200DB51D9250D01936F0301DC51DA210D014D
:102D1200946F0301F56BF66BD9C303F4DAC304F4C1
:102D22000D01906B916B926B3FEC0EF0900E0301D4
:102D3200FF6F0D01C16BC26B420EC36F3FEC02F01D
:102D4200D9C3C1FDDAC3C2FD400E0D01C36F3FEC12
:042D520002F0120079
:102D56000F01256B246B236B25812583928092823C
:102D66004EDF9A9691969A9A919A9A9C919C9494EF
:102D7600949298908B948B928F90F00E0D01836FA6
:102D8600000E846F800E856F080E866F47DF030185
:102D9600FF87FFC3E9FD22EC00F00301FF85FFC3B7
:102DA600E9FD22EC00F00301FF93FFC3E9FD22ECED
:102DB60000F0F00E0D01836F000E846F800E856F9C
:102DC600000E866F876B010E886FB1DD840E0D01D4
:102DD600836F030E846FA6DD0701336B0301DD6B82
:042DE600DE6B12008E
:102DEA000D01DF6BE06B7F0EE16F000EE26F080EE4
:102DFA00E36F8DEC00F0340E0D01996F010E9A6F9E
:102E0A00030E9B6F0C0E9C6F810E9D6F4EEC02F0B1
:102E1A001DDD3D0E0B6EE10E0C6E3F0E0D6E0D2E7E
:102E2A00FED70C2EFCD70B2EFAD7000000000D019E
:102E3A00DF6BE06B7F0EE16F000EE26FE36B8DECF0
:102E4A0000F0EF0E0D01DF6F000EE06FE16BE26B39
:102E5A00080EE36F8DEC00F0100E0D01996F010E54
:102E6A009A6F030E9B6F0C0E9C6F810E9D6F4EEC3A
:102E7A0002F0220E0D01996F010E9A6F0C0E9B6FD4
:102E8A00030E9C6F810E9D6F4EEC02F068DD3D0EC5
:102E9A000B6EE10E0C6E3F0E0D6E0D2EFED70C2E34
:0C2EAA00FCD70B2EFAD70000000012002D
:102EB600020E07011F6F000E206F150E216F070E01
:102EC600226F010E236F000E246FB10E256F060EC2
:102ED600266F276B286B030E2B6F000E2C6FAB0E25
:102EE6002D6F060E2E6F2F6B306BB30E156F060E01
:102EF600166FF50E176F060E186FD30E0601AB6F21
:102F0600060EAC6F340EAD6F070EAE6F3A0EB16F94
:102F1600080EB26F180EAF6F080EB06F080E0801DC
:102F2600576F000E586F6D0E596F080E5A6F5B6B18
:102F36005C6B5F6B606B010E636F000E646F6B0EF4
:102F4600656F080E666F676B686BF60E6B6F070E24
:102F56006C6F760E6D6F070E6E6F560E6F6F070EE7
:102F6600706F960E716F070E726FD60E736F070E27
:102F7600746FB60E756F070E766F8B0E776F060E33
:102F8600786FC70E796F040E7A6FA70E7B6F040EEB
:102F96007C6F010E0401E76F000EE86FFD0EE96F0E
:102FA600040EEA6F010EEB6F000EEC6FFB0EED6F79
:102FB600040EEE6F1B0EEF6F000EF06F710EF16FC9
:102FC600040EF26F020EF36F000EF46F090EF56F2A
:102FD600040EF66F010EF76F000EF86F070EF96F0D
:102FE600040EFA6F0D0E096F040E0A6F500E716F04
:102FF600040E726F2F0E736F040E746FFF0E756FD3
:10300600040E766F070E776F060E786FE60E796FF1
:10301600050E7A6F280E7B6F060E7C6F6A0E7D6F2B
:10302600060E7E6F490E7F6F060E806FC50E816F8E
:10303600050E826F410E836F050E846F200E856F1D
:10304600050E866F620E876F050E886FA40E896F58
:10305600050E8A6F830E8B6F050E8C6F360E8D6F85
:103066000C0E8E6F150E8F6F0C0E906FF40E916F07
:103076000B0E926F990E936F0C0E946F780E956FE0
:103086000C0E966F570E976F0C0E986F700E996F09
:103096000B0E9A6F4F0E9B6F0B0E9C6F2E0E9D6F35
:1030A6000B0E9E6FD30E9F6F0B0EA06FB20EA16F0D
:1030B6000B0EA26F910EA36F0B0EA46FBA0EFB6FD1
:1030C6000C0EFC6F190EA56F0D0EA66FF90EFD6F97
:1030D6000C0EFE6F3A0E076F0D0E086F510E0B6F3A
:1030E6000D0E0C6F070E0C01D76F000ED86FEB0E8E
:1030F600D96F0C0EDA6FDB6BDC6BDF6BE06B010EEE
:10310600E36F000EE46F450EE56F090EE66FE76BA1
:10311600E86B9C0E0901456F090E466F680E0C019F
:10312600EB6F090EEC6F9F0EED6F080EEE6F230E20
:10313600EF6F090EF06FE10EF16F080EF26FAC0E35
:10314600F36F0A0EF46F6C0EF56F0A0EF66FEE0E45
:10315600F76F0A0EF86F030E0A01586F000E596FCB
:10316600520E5A6F0A0E5B6F5C6B5D6B606B616B28
:10317600070E646F000E656F440E666F0A0E676F6A
:10318600686B696BDE0E446F090E456F000E466F65
:103196000A0E476F220E486F0A0E496FCC0E4A6F11
:1031A6000A0E4B6F0E0E526F0B0E536F8C0E546F32
:1031B6000A0E556FBE0E566F090E576F010E4C6FF5
:1031C600090E4D6F7D0E4E6F080E4F6FBF0E506F7E
:1031D600080E516F0901886B896B8C6B8D6B010E24
:1031E600906F000E916F430E926F090E936F946B62
:1031F600956B986B996B470E436F090E446F1F0EC4
:103206000601B36F070EB46FB56B180EB66F900E4E
:10321600B76F080EB86FC60EB96F030EBA6FBB6BE9
:10322600BC6BBD6B070EBE6F070EBF6F200EC06F67
:10323600020EC16F010EC26FC36BC46BC56BC66B4A
:10324600C76BC86BC96BCA6BCB6BCC6BCD6BCE6BCC
:10325600CF6BD06BD16BD26B1F0EF56F070EF66F6F
:10326600F76B280EF86F980EF96F080EFA6FA10E1D
:10327600FB6F030EFC6FFD6BFE6BFF6B070E07010A
:10328600006F070E016F200E026F020E036F010E14
:10329600046F056B066B076B086B096B0A6B0B6B90
:1032A6000C6B0D6B0E6B0F6B106B116B126B136B44
:1032B600146B1F0E0601D36F070ED46F030ED56F66
:1032C6003B0ED66F8A0ED76F120ED86F030ED96FCC
:1032D600040EDA6FB50EDB6F030EDC6FDD6BDE6B93
:1032E600DF6B070EE06F070EE16F200EE26F020E36
:1032F600E36F010EE46FE56BE66BE76BE86BE96B7A
:10330600EA6BEB6BEC6B3C0EED6F230EEE6F000E73
:10331600EF6F000EF06FF16BF26BF36BF46B1F0E39
:103326000701346F070E356F030E366F530E376F76
:103336008A0E386F120E396F030E3A6F040E3B6F0A
:10334600E30E3C6F010E3D6F3E6B3F6B406B070E0D
:10335600416F070E426F200E436F020E446F010E3F
:10336600456F466B476B486B496B4A6B4B6B4C6BB7
:103376004D6BDA0E4E6F260E4F6F000E506F000E1D
:10338600516F526B536B546B556B1F0E08013A6F9E
:10339600070E3B6FB10E3C6F060E3D6F370E3E6F4C
:1033A600360E3F6F370E406F360E416F540E426F2A
:1033B600660E436F000E446F010E456F466B476BFA
:1033C600486B496B4A6B4B6B4C6B4D6B4E6B4F6B43
:1033D600506B516B526B536B546B556B566B1F0E88
:1033E600186F070E196F030E1A6F6B0E1B6F8A0E7E
:1033F6001C6F120E1D6F030E1E6F040E1F6FF40E50
:10340600206F010E216F226B236B246B070E256F35
:10341600070E266F200E276F020E286F010E296FEA
:103426002A6B2B6B2C6B2D6B2E6B2F6B306B316BD2
:10343600560E326F1F0E336F000E346F000E356F4F
:10344600366B376B386B396B570E0701F66F080E04
:10345600F76FBB0EF86F630EF96F2A0EFA6F120E36
:10346600FB6F030EFC6F040EFD6FC30EFE6F010EA5
:10347600FF6F0801006B016B026B070E036F070EEF
:10348600046F200E056F020E066F010E076F086BA4
:10349600096B0A6B0B6B0C6B0D6B0E6B0F6B8E0E49
:1034A600106F260E116F000E126F000E136F146B45
:1034B600156B166B176B570E0701766F080E776F35
:1034C600080E786F180E796FD00E7A6F080E7B6F24
:1034D600C80E7C6F010E7D6F7E6B7F6B806B070E57
:1034E600816F070E826F200E836F020E846F010EAE
:1034F600856F866B876B886B896B8A6B8B6B8C6B26
:103506008D6B8E6B8F6B906B916B926B936B946BD9
:10351600956B570E566F080E576F080E586F200E94
:10352600596FD00E5A6F080E5B6F370E5C6F020E26
:103536005D6F5E6B5F6B606B070E616F070E626F90
:10354600200E636F020E646F010E656F666B676B0C
:10355600686B696B6A6B6B6B6C6B6D6B6E6B6F6BB1
:10356600706B716B726B736B746B756B570E966FBA
:10357600080E976F080E986F280E996FD80E9A6FDF
:10358600080E9B6F520E9C6F020E9D6F9E6B9F6B7B
:10359600A06B070EA16F070EA26F200EA36F020E7F
:1035A600A46F010EA56FA66BA76BA86BA96BAA6B80
:1035B600AB6BAC6BAD6BAE6BAF6BB06BB16BB26B39
:1035C600B36BB46BB56B570ED66F080ED76F080E7C
:1035D600D86F300ED96FA00EDA6F080EDB6F050EAE
:1035E600DC6F020EDD6FDE6BDF6BE06B070EE16FEB
:1035F600070EE26F200EE36F020EE46F010EE56F19
:10360600E66BE76BE86BE96BEA6BEB6BEC6BED6B10
:10361600EE6BEF6BF06BF16BF26BF36BF46BF56BC0
:10362600570EB66F080EB76F080EB86F380EB96F23
:10363600E00EBA6F080EBB6F1A0EBC6F020EBD6F9E
:10364600BE6BBF6BC06B070EC16F070EC26F200E3D
:10365600C36F020EC46F010EC56FC66BC76BC86B16
:10366600C96BCA6BCB6BCC6BCD6BCE6BCF6BD06B98
:10367600D16BD26BD36BD46BD56B570E06018B6FA8
:10368600080E8C6F080E8D6F400E8E6FE00E8F6FDA
:10369600080E906F8B0E916F010E926F936B946B69
:1036A600956B070E966F070E976F200E986F020E9A
:1036B600996F010E9A6F9B6B9C6B9D6B9E6B9F6BBC
:1036C600A06BA16BA26BA36BA46BA56BA66BA76B80
:1036D600A86BA96BAA6B570E0401C76F080EC86FBB
:1036E600080EC96F480ECA6F900ECB6F080ECC6FCE
:1036F600A80ECD6F010ECE6FCF6BD06BD16B070EC0
:10370600D26F070ED36F200ED46F020ED56F010E47
:10371600D66FD76BD86BD96BDA6BDB6BDC6BDD6B7B
:10372600DE6BDF6BE06BE16BE26BE36BE46BE56B2F
:10373600E66B570EA76F080EA86F580EA96F080EF6
:10374600AA6F280EAB6F080EAC6F800EAD6F010E20
:10375600AE6FAF6BB06BB16B070EB26F070EB36F88
:10376600200EB46F020EB56F010EB66FB76BB86B55
:10377600B96BBA6BBB6BBC6BBD6BBE6BBF6BC06B07
:10378600C16BC26BC36BC46BC56BC66BE70E0D6FAB
:10379600040E0E6FBB0E0F6F630E106F2A0E116FA5
:1037A600120E126F030E136F040E146F860E156F32
:1037B600010E166F176B186B196B070E1A6F070E33
:1037C6001B6F200E1C6F020E1D6F010E1E6F1F6BEE
:1037D600206B216B226B236B246B256B266B9A0E59
:1037E600276F200E286F000E296F000E2A6F2B6B95
:1037F6002C6B2D6B2E6BE70E506F040E516F030E64
:10380600526F030E536F120E546F120E556F030E46
:10381600566FBF0E576F010E586F596B5A6B5B6B25
:10382600070E5C6F070E5D6F200E5E6F020E5F6FF8
:10383600010E606F616B626B636B646B656B666BCD
:10384600676B686B420E696F1F0E6A6F000E6B6FB7
:10385600000E6C6F6D6B6E6B6F6B706BE70E2F6F80
:10386600040E306F1B0E316F030E326F120E336F64
:10387600120E346F030E356FC10E366F010E376FA1
:10388600386B396B3A6B070E3B6F070E3C6F200E99
:103896003D6F020E3E6F010E3F6F406B416B426BF8
:1038A600436B446B456B466B476B380E486F1F0E78
:1038B600496F000E4A6F000E4B6F4C6B4D6B4E6B93
:1038C6004F6BE70EFF6F040E0501006F330E016F9D
:1038D600030E026F120E036F120E046F030E056FB6
:1038E600BB0E066F010E076F086B096B0A6B070E9E
:1038F6000B6F070E0C6F200E0D6F020E0E6F010E72
:103906000F6F106B116B126B136B146B156B166BC1
:10391600176B4C0E186F1F0E196F000E1A6F000EE4
:103926001B6F1C6B1D6B1E6B1F6BE70E0601076F73
:10393600040E086F4B0E096F030E0A6F120E0B6F03
:10394600120E0C6F030E0D6FBD0E0E6F010E0F6F74
:10395600106B116B126B070E136F070E146F200E90
:10396600156F020E166F010E176F186B196B1A6B17
:103976001B6B1C6B1D6B1E6B1F6B900E206F200E3E
:10398600216F000E226F000E236F246B256B266BB2
:10399600276BE70E0501E66F040EE76F630EE86F0F
:1039A600030EE96F120EEA6F120EEB6F030EEC6F49
:1039B6006E0EED6F020EEE6FEF6BF06BF16B070E96
:1039C600F26F070EF36F200EF46F020EF56F010E05
:1039D600F66FF76BF86BF96BFA6BFB6BFC6BFD6BB9
:1039E600FE6BDC0EFF6F200E0601006F000E016FEE
:1039F600000E026F036B046B056B066BE70E286FF8
:103A0600040E296F7B0E2A6F030E2B6F120E2C6F7E
:103A1600120E2D6F030E2E6F840E2F6F020E306F57
:103A2600316B326B336B070E346F070E356F200E1A
:103A3600366F020E376F010E386F396B3A6B3B6B80
:103A46003C6B3D6B3E6B3F6B406BE60E416F200E51
:103A5600426F000E436F000E446F456B466B476B1B
:103A6600486BE70E6A6F040E6B6F930E6C6F030E56
:103A76006D6F120E6E6F120E6F6F030E706F860EE5
:103A8600716F020E726F736B746B756B070E766FC8
:103A9600070E776F200E786F020E796F010E7A6F20
:103AA6007B6B7C6B7D6B7E6B7F6B806B816B826BC4
:103AB6002E0E836F1F0E846F000E856F000E866FAD
:103AC600876B886B896B8A6BE70E496F040E4A6FAA
:103AD600AB0E4B6F030E4C6F120E4D6F120E4E6FE8
:103AE600030E4F6F800E506F020E516F526B536B69
:103AF600546B070E556F070E566F200E576F020E4A
:103B0600586F010E596F5A6B5B6B5C6B5D6B5E6B2E
:103B16005F6B606B616B7C0E626F200E636F000ED5
:103B2600646F000E656F666B676B686B696BE70E9B
:103B36000501C56F040EC66FC30EC76F030EC86FAF
:103B4600120EC96F120ECA6F030ECB6F820ECC6FA8
:103B5600020ECD6FCE6BCF6BD06B070ED16F070EFB
:103B6600D26F200ED36F020ED46F010ED56FD66BB7
:103B7600D76BD86BD96BDA6BDB6BDC6BDD6B860EC8
:103B8600DE6F200EDF6F000EE06F000EE16FE26B5E
:103B9600E36BE46BE56BE70E416F040E426FDB0EE1
:103BA600436F030E446F120E456F120E466F030EDF
:103BB600476F8C0E486F020E496F4A6B4B6B4C6B0E
:103BC600070E4D6F070E4E6F200E4F6F020E506F91
:103BD600010E516F526B536B546B556B566B576B93
:103BE600586B596B1C0E5A6F260E5B6F000E5C6F7E
:103BF600000E5D6F5E6B5F6B606B616BE70E206F37
:103C0600040E216F0B0E226F1B0E236F120E246FF4
:103C1600120E256F030E266F8E0E276F020E286F6B
:103C2600296B2A6B2B6B070E2C6F070E2D6F200E40
:103C36002E6F020E2F6F010E306F316B326B336BAE
:103C4600346B356B366B376B386B100E396F260E4F
:103C56003A6F000E3B6F000E3C6F3D6B3E6B3F6B49
:103C6600406BE70E626F040E636F230E646F1B0ECC
:103C7600656F120E666F120E676F030E686F880E01
:103C8600696F020E6A6F6B6B6C6B6D6B070E6E6FF6
:103C9600070E6F6F200E706F020E716F010E726F3E
:103CA600736B746B756B766B776B786B796B7A6B02
:103CB600720E7B6F200E7C6F000E7D6F000E7E6F86
:103CC6007F6B806B816B826BE70EA46F040EA56F12
:103CD6003B0EA66F1B0EA76F120EA86F120EA96FD2
:103CE600030EAA6F8A0EAB6F020EAC6FAD6BAE6B96
:103CF600AF6B070EB06F070EB16F200EB26F020EDC
:103D0600B36F010EB46FB56BB66BB76BB86BB96BAF
:103D1600BA6BBB6BBC6BD20EBD6F200EBE6F000EB6
:103D2600BF6F000EC06FC16BC26BC36BC46BE70E77
:103D3600836F040E846F530E856F1B0E866F120EF3
:103D4600876F120E886F030E896F740E8A6F020ECC
:103D56008B6F8C6B8D6B8E6B070E8F6F070E906F54
:103D6600200E916F020E926F010E936F946B956BFE
:103D7600966B976B986B996B9A6B9B6BEA0E9C6F25
:103D8600260E9D6F000E9E6F000E9F6FA06BA16B9F
:103D9600A26BA36BE70E0C01366F040E376F6B0E2A
:103DA600386F1B0E396F120E3A6F120E3B6F030EF1
:103DB6003C6F760E3D6F020E3E6F3F6B406B416B64
:103DC600070E426F070E436F200E446F020E456FBB
:103DD600010E466F476B486B496B4A6B4B6B4C6BDE
:103DE6004D6B4E6BF60E4F6F260E506F000E516FD9
:103DF600000E526F536B546B556B566BE70E156F77
:103E0600040E166F830E176F1B0E186F120E196FA6
:103E1600120E1A6F030E1B6F700E1C6F020E1D6FB3
:103E26001E6B1F6B206B070E216F070E226F200E75
:103E3600236F020E246F010E256F266B276B286BEE
:103E4600296B2A6B2B6B2C6B2D6B5E0E2E6F260E41
:103E56002F6F000E306F000E316F326B336B346B89
:103E6600356BE70E0B01F46F040EF56F9B0EF66FC4
:103E76001B0EF76F120EF86F120EF96F030EFA6F24
:103E8600720EFB6F020EFC6FFD6BFE6BFF6B070E77
:103E96000C01006F070E016F200E026F020E036FFA
:103EA600010E046F056B066B076B086B096B0A6BDB
:103EB6000B6B0C6B6A0E0D6F260E0E6F000E0F6FDE
:103EC600000E106F116B126B136B146BE70E996F6C
:103ED600040E9A6FB30E9B6F1B0E9C6F120E9D6F96
:103EE600120E9E6F030E9F6F7C0EA06F020EA16FC7
:103EF600A26BA36BA46B070EA56F070EA66F200E11
:103F0600A76F020EA86F010EA96FAA6BAB6BAC6B05
:103F1600AD6BAE6BAF6BB06BB16B680EB26F200E54
:103F2600B36F000EB46F000EB56FB66BB76BB86BA0
:103F3600B96BE70E786F040E796FCB0E7A6F1B0E96
:103F46007B6F120E7C6F120E7D6F030E7E6F7E0EE0
:103F56007F6F020E806F816B826B836B070E846F9F
:103F6600070E856F200E866F020E876F010E886F13
:103F7600896B8A6B8B6B8C6B8D6B8E6B8F6B906B7F
:103F8600820E916F260E926F000E936F000E946F45
:103F9600956B966B976B986BE70E576F040E586F81
:103FA600130E596F330E5A6F120E5B6F120E5C6F43
:103FB600030E5D6F780E5E6F020E5F6F606B616B56
:103FC600626B070E636F070E646F200E656F020E3D
:103FD600666F010E676F686B696B6A6B6B6B6C6BF8
:103FE6006D6B6E6B6F6B760E706F260E716F000EBB
:103FF600726F000E736F746B756B766B776BE70E73
:104006000B01706F040E716F2B0E726F330E736F90
:10401600120E746F120E756F030E766F7A0E776F2F
:10402600020E786F796B7A6B7B6B070E7C6F070ECF
:104036007D6F200E7E6F020E7F6F010E806F816B8B
:10404600826B836B846B856B866B876B886BCE0EFE
:10405600896F260E8A6F000E8B6F000E8C6F8D6B2C
:104066008E6B8F6B906BE70E4F6F040E506F430E87
:10407600516F330E526F120E536F120E546F030EA2
:10408600556FC00E566F000E576F586B596B5A6BB3
:10409600070E5B6F070E5C6F200E5D6F020E5E6F84
:1040A600010E5F6F606B616B626B636B646B656B5C
:1040B600666B676B1C0E686F280E696F000E6A6F61
:1040C600000E6B6F6C6B6D6B6E6B6F6BE70E2E6F0E
:1040D600040E2F6F5B0E306F330E316F120E326F80
:1040E600120E336F030E346FC20E356F000E366F2D
:1040F600376B386B396B070E3A6F070E3B6F200E26
:104106003C6F020E3D6F010E3E6F3F6B406B416B85
:10411600426B436B446B456B466B280E476F280E0C
:10412600486F000E496F000E4A6F4B6B4C6B4D6B20
:104136004E6BE70ED36F040ED46F730ED56F330E2E
:10414600D66F120ED76F120ED86F030ED96FBC0E34
:10415600DA6F000EDB6FDC6BDD6BDE6B070EDF6F7D
:10416600070EE06F200EE16F020EE26F010EE36FA5
:10417600E46BE56BE66BE76BE86BE96BEA6BEB6BA5
:10418600100EEC6F280EED6F000EEE6F000EEF6F47
:10419600F06BF16BF26BF36BE70EB26F040EB36F5D
:1041A6008B0EB46F330EB56F120EB66F120EB76F5D
:1041B600030EB86FBE0EB96F000EBA6FBB6BBC6B49
:1041C600BD6B070EBE6F070EBF6F200EC06F020ECF
:1041D600C16F010EC26FC36BC46BC56BC66BC76B79
:1041E600C86BC96BCA6BB20ECB6F220ECC6F000EBA
:1041F600CD6F000ECE6FCF6BD06BD16BD26BE70E4F
:10420600916F040E926FA30E936F330E946F120E7E
:10421600956F120E966F030E976FE30E986F000E52
:10422600996F9A6B9B6B9C6B070E9D6F070E9E6F2B
:10423600200E9F6F020EA06F010EA16FA26BA36BE3
:10424600A46BA56BA66BA76BA86BA96BA80EAA6F30
:10425600220EAB6F000EAC6F000EAD6FAE6BAF6B88
:10426600B06BB16BE70E0C01BA6F040EBB6FBA0EE2
:10427600BC6F330EBD6F320EBE6F120EBF6F320EA5
:10428600C06F120EC16FCE0EC26F670EC36F000EE7
:10429600C46F010EC56FC66BC76BC86BC96BCA6BA3
:1042A600CB6BCC6BCD6BCE6B340ECF6F280ED06F35
:1042B600000ED16F000ED26FD36BD46BD56BD66B5D
:1042C600E70E0D01196F040E1A6F1B0E1B6F4B0EB6
:1042D6001C6F720E1D6F120E1E6F030E1F6FE50E02
:1042E600206F000E216F226B236B246B070E256F48
:1042F600070E266F200E276F020E286F010E296FFC
:104306002A6B2B6B2C6B2D6B2E6B2F6B306B316BE3
:10431600020E326F270E336F000E346F000E356FAC
:10432600366B376B386B396BE70E0C01F96F040E81
:10433600FA6F080EFB6F680EFC6F010EFD6F080E1C
:10434600FE6FC40EFF6F000E0D01006F016B026B56
:10435600036B070E046F070E056F200E066F020E25
:10436600076F010E086F096B0A6B0B6B0C6B0D6BFD
:104376000E6B0F6B106B116B126B136B146B156B53
:10438600166B176B186BE70E3A6F040E3B6F050E34
:104396003C6F630E3D6FB00E3E6F130E3F6F010E06
:1043A600406F416B426B436B446B456B466B476B8F
:1043B600486B496B4A6B4B6B4C6B4D6B4E6B4F6B43
:1043C600506BE70E516F040E526F9B0E536F4B0EE0
:1043D600546F520E556F120E566F030E576F040E22
:1043E600586FD90E596F000E5A6F5B6B5C6B5D6B25
:1043F600070E5E6F070E5F6F200E606F020E616F15
:10440600010E626F636B646B656B666B676B686BE3
:10441600696B6A6BC40E6B6F270E6C6F000E6D6F47
:10442600000E6E6F6F6B706B716B726BD70E09013E
:104436009C6F0C0E9D6FBB0E9E6F630E9F6F2A0EB8
:10444600A06F120EA16F030EA26F040EA36F480E8B
:10445600A46F000EA56FA66BA76BA86B070EA96FBE
:10446600070EAA6F200EAB6F020EAC6F010EAD6F7A
:10447600AE6BAF6BB06BB16BB26BB36BB46BB56B52
:10448600460EB66F280EB76F000EB86F000EB96FE6
:10449600BA6BBB6BBC6BBD6BD70E686F0C0E696FCE
:1044A600600E6A6F100E6B6F280E6C6F080E6D6FC4
:1044B6004D0E6E6F000E6F6F706B716B726B070E29
:1044C600736F070E746F200E756F020E766F010EF6
:1044D600776F786B796B7A6B7B6B7C6B7D6B7E6BA6
:1044E6007F6B806B816B826B836B846B856B866B5A
:1044F600876BD70E08019F6F0C0EA06F080EA16F79
:10450600200EA26FB80EA36F080EA46F150EA56F2E
:10451600000EA66FA76BA86BA96B070EAA6F070EF6
:10452600AB6F200EAC6F020EAD6F010EAE6FAF6BB0
:10453600B06BB16BB26BB36BB46BB56BB66BB76B81
:10454600B86BB96BBA6BBB6BBC6BBD6BBE6BD70E76
:104556000901236F0C0E246F080E256F280E266F97
:10456600D00E276F080E286F2D0E296F000E2A6FAA
:104576002B6B2C6B2D6B070E2E6F070E2F6F200EDD
:10458600306F020E316F010E326F336B346B356B49
:10459600366B376B386B396B3A6B3B6B3C6B3D6BF1
:1045A6003E6B3F6B406B416B426BD70E0801E16F70
:1045B6000C0EE26F080EE36F300EE46FC00EE56F6F
:1045C600080EE66F8B0EE76F000EE86FE96BEA6B7D
:1045D600EB6B070EEC6F070EED6F200EEE6F020E03
:1045E600EF6F010EF06FF16BF26BF36BF46BF56B23
:1045F600F66BF76BF86BF96BFA6BFB6BFC6BFD6B91
:10460600FE6BFF6B0901006BD70E0A01AC6F0C0E37
:10461600AD6F080EAE6F380EAF6FB80EB06F080EE6
:10462600B16FA40EB26F000EB36FB46BB56BB66B01
:10463600070EB76F070EB86F200EB96F020EBA6F6E
:10464600010EBB6FBC6BBD6BBE6BBF6BC06BC16B32
:10465600C26BC36BC46BC56BC66BC76BC86BC96BD0
:10466600CA6BCB6BD70E6C6F0C0E6D6F080E6E6F30
:10467600400E6F6FE00E706F080E716F530E726F03
:10468600000E736F746B756B766B070E776F070E84
:10469600786F200E796F020E7A6F010E7B6F7C6B3E
:1046A6007D6B7E6B7F6B806B816B826B836B846BA8
:1046B600856B866B876B886B896B8A6B8B6BD70E6A
:1046C600EE6F0C0EEF6F080EF06F480EF16FD00E06
:1046D600F26F080EF36F700EF46F000EF56FF66B47
:1046E600F76BF86B070EF96F070EFA6F200EFB6F6C
:1046F600020EFC6F010EFD6FFE6BFF6B0B01006B74
:10470600016B026B036B046B056B066B076B086B27
:10471600096B0A6B0B6B0C6B0D6B580E0901DE6F88
:104726000A0EDF6FBB0EE06F630EE16F2A0EE26FBB
:10473600120EE36F030EE46F040EE56FF30EE66FE1
:10474600000EE76FE86BE96BEA6B070EEB6F070E7F
:10475600EC6F200EED6F020EEE6F010EEF6FF06B39
:10476600F16BF26BF36BF46BF56BF66BF76B9A0E02
:10477600F86F220EF96F000EFA6F000EFB6FFC6BDE
:10478600FD6BFE6BFF6B580E0A01006F0A0E016F80
:10479600130E026F0B0E036F320E046F120E056FAF
:1047A600030E066F040E076F500E086F010E096F99
:1047B6000A6B0B6B0C6B070E0D6F070E0E6F200E40
:1047C6000F6F020E106F010E116F126B136B146BCD
:1047D600156B166B176B186B196B520E1A6F220E30
:1047E6001B6F000E1C6F000E1D6F1E6B1F6B206B68
:1047F600216B580E226F0A0E236F5B0E246F0B0E71
:10480600256F320E266F120E276F030E286F040EC9
:10481600296F560E2A6F010E2B6F2C6B2D6B2E6B8C
:10482600070E2F6F070E306F200E316F020E326F9C
:10483600010E336F346B356B366B376B386B396BF8
:104846003A6B3B6B7C0E3C6F270E3D6F000E3E6F46
:10485600000E3F6F406B416B426B436B580ECC6F43
:104866000A0ECD6FA30ECE6F0B0ECF6F320ED06F2A
:10487600120ED16F030ED26F040ED36F460ED46F95
:10488600010ED56FD66BD76BD86B070ED96F070E97
:10489600DA6F200EDB6F020EDC6F010EDD6FDE6B52
:1048A600DF6BE06BE16BE26BE36BE46BE56B0A0ECF
:1048B600E66F220EE76F000EE86F000EE96FEA6BF7
:1048C600EB6BEC6BED6B580E0B010E6F0A0E0F6F58
:1048D600200E106F200E116F100E126F080E136F40
:1048E6004C0E146F010E156F166B176B186B070EB7
:1048F600196F070E1A6F200E1B6F020E1C6F010E2A
:104906001D6F1E6B1F6B206B216B226B236B246B41
:10491600256B266B276B286B296B2A6B2B6B2C6BF5
:104926002D6B580E0A018C6F0A0E8D6F680E8E6FF6
:10493600200E8F6F100E906F080E916F780E926F8B
:10494600010E936F946B956B966B070E976F070E20
:10495600986F200E996F020E9A6F010E9B6F9C6BDB
:104966009D6B9E6B9F6BA06BA16BA26BA36BA46BE5
:10497600A56BA66BA76BA86BA96BAA6BAB6B580E46
:104986000901BE6F0A0EBF6FB00EC06F200EC16F59
:10499600100EC26F080EC36F7C0EC46F010EC56F7A
:1049A600C66BC76BC86B070EC96F070ECA6F200EA2
:1049B600CB6F020ECC6F010ECD6FCE6BCF6BD06B73
:1049C600D16BD26BD36BD46BD56BD66BD76BD86BE5
:1049D600D96BDA6BDB6BDC6BDD6B580E016F0A0E85
:1049E600026F3B0E036F330E046F720E056F120ECD
:1049F600066F030E076F040E086F5C0E096F010E3B
:104A06000A6F0B6B0C6B0D6B070E0E6F070E0F6F9D
:104A1600200E106F020E116F010E126F136B146BC6
:104A2600156B166B176B186B196B1A6B0E0E1B6FCB
:104A3600270E1C6F000E1D6F000E1E6F1F6B206B66
:104A4600216B226B580E08017D6F0A0E7E6F3B0E9E
:104A56007F6F4B0E806F720E816F120E826F030E88
:104A6600836F040E846F6A0E856F010E866F876BE7
:104A7600886B896B070E8A6F070E8B6F200E8C6F03
:104A8600020E8D6F010E8E6F8F6B906B916B926B1A
:104A9600936B946B956B966BF00E976F200E986FD9
:104AA600000E996F000E9A6F9B6B9C6B9D6B9E6BB5
:104AB600580EBF6F0A0EC06F3B0EC16F630EC26FFA
:104AC600720EC36F120EC46F030EC56F040EC66F4F
:104AD600F80EC76F000EC86FC96BCA6BCB6B070E9B
:104AE600CC6F070ECD6F200ECE6F020ECF6F010E6C
:104AF600D06FD16BD26BD36BD46BD56BD66BD76BB8
:104B0600D86B4A0ED96F230EDA6F000EDB6F000EDC
:104B1600DC6FDD6BDE6BDF6BE06B880E0901476FC8
:104B2600090E486F9B0E496F6B0E4A6F520E4B6F04
:104B3600120E4C6F030E4D6F060E4E6F010E4F6F29
:104B4600506B516B526B070E536F070E546F200E4E
:104B5600556F020E566F576B586B596B5A6B5B6BE2
:104B66005C6B5D6B5E6B5F6B2A0E606F230E616F15
:104B7600000E626F000E636F646B656B666B676B2E
:024B860012001B
:104B8800E0EC15F00301ED51005C0D01776F0301B6
:104B9800EE5101580D01786FE8EC14F00301EF5164
:104BA800005C0D01796F0301F05101580D017A6F16
:104BB80077CD00F078CD01F0000E78BFFF0E026EC1
:104BC800036E05C404F006C405F0000E066E076EF9
:104BD8000AEC15F00301ED510401015D046E0301B7
:104BE800EE5104010259056E000E066E076E33EC95
:104BF80015F000C077FD01C078FD79CD00F07ACDC1
:104C080001F0000E0D017ABFFF0E026E036EFDC3A8
:104C180004F0FEC305F0000E066E076E0AEC15F0F0
:104C28000301EF51EA5D046EF051EB59056E000E79
:104C3800066E076E33EC15F000500301FD5D0D01A3
:104C4800796F01500301FE590D017A6F800E7819B2
:104C5800006E800E005C02E1000E775D0BE304013C
:104C680006510D01785D04E1040105510D01775DE0
:104C780001E203D0010E006E72D0800E7A19006E28
:104C8800800E005C02E1000E795D0BE30301FE512A
:104C98000D017A5D04E10301FD510D01795D01E229
:104CA80003D0010E006E5BD00301F1510D01775D59
:104CB800016E0301F2510D017859026E01C07BFDAE
:104CC80002C07CFD0301F3510D01795D7D6F030185
:104CD800F4510D017A597E6F77CDF1F378CDF2F367
:104CE80079CDF3F37ACDF4F3800E000A006E800ECE
:104CF8000218005C02E1015005081DE3800E000A5D
:104D0800006E800E7E19005C02E17D51050813E3F8
:104D1800800E7C19006E7F0E005C02E1FB0E7B5D4D
:104D28000AE3800E7E19006E7F0E005C02E1FB0E26
:104D38007D5D01E303D0010E006E11D073CDE1FF5C
:104D480074CDE2FF77CDE6FF78CDE6FF75CDE1FFC4
:104D580076CDE2FF79CDE6FF7ACDE6FF006A120054
:104D68008F968F98DDEC10F0E1C3E1FFE2C3E2FF1C
:104D7800E7C3E6FFDFC300F0E0C301F078EC0FF013
:104D880001500301E95D02E10050E85D010ED8B071
:104D9800000E0D01736FDDEC10F0E1C3E1FFE2C31B
:104DA800E2FFE7C3E6FFDFC300F0E0C301F078EC01
:104DB8000FF001500301E95D02E10050E85D010ECA
:104DC800D8B0000E026E02500D017315006E00C0BF
:044DD80073FD120055
:104DDC000D01776B786B080E07011B25D96E000E41
:104DEC001C21DA6EDECF01F0DECF02F002500D0195
:104DFC00785D02E10150775DD8B07DD00A0E0701D5
:104E0C001B25E96E000E1C21EA6EEECF03F0EECFEF
:104E1C0004F077CD00F078CD01F00036009001362B
:104E2C0000500324E96E01500420EA6EEECF00F02E
:104E3C00EECF01F000C079FD01C07AFD73CD83FD8A
:104E4C0074CD84FD75CD85FD76CD86FD020E0024D6
:104E5C00E96E000E0120EA6EEECF87FD030E0024F2
:104E6C00E96E000E0120EA6EEECF88FD040E0024E0
:104E7C00E96E000E0120EA6EEECF89FD050E0024CE
:104E8C00E96E000E0120EA6EEECF8AFD5FEC14F0A5
:104E9C000050010A2CE11D0E7925E96E000E7A21D5
:104EAC00EA6EEECF01F0EECF02F0EECF03F0EECFD4
:104EBC0004F0000E006E041808E10050031805E120
:104ECC000050021802E10150000A11E01D0E792574
:104EDC00E96E000E7A21EA6EEECF00F0EECF01F013
:104EEC00EECF02F0EECF03F078EC0FF048D20D01CC
:104EFC00774B782B70D7776B786B0C0E07011B25D3
:104F0C00D96E000E1C21DA6EDECF01F0DECF02F07E
:104F1C0002500D01785D02E10150775DD8B07DD073
:104F2C000E0E07011B25E96E000E1C21EA6EEECF5A
:104F3C0003F0EECF04F077CD00F078CD01F0003621
:104F4C000090013600500324E96E01500420EA6EF3
:104F5C00EECF00F0EECF01F000C07BFD01C07CFD78
:104F6C0073CD83FD74CD84FD75CD85FD76CD86FD29
:104F7C00020E0024E96E000E0120EA6EEECF87FDD2
:104F8C00030E0024E96E000E0120EA6EEECF88FDC0
:104F9C00040E0024E96E000E0120EA6EEECF89FDAE
:104FAC00050E0024E96E000E0120EA6EEECF8AFD9C
:104FBC005FEC14F00050010A2CE11E0E7B25E96E0B
:104FCC00000E7C21EA6EEECF01F0EECF02F0EECFB8
:104FDC0003F0EECF04F0000E006E041808E1005050
:104FEC00031805E10050021802E10150000A11E01B
:104FFC001E0E7B25E96E000E7C21EA6EEECF00F0D2
:10500C00EECF01F0EECF02F0EECF03F078EC0FF024
:10501C00B6D10D01774B782B70D7776B786B1BC79C
:10502C00E9FF1CC7EAFFEECF01F0EECF02F0025011
:10503C00785D02E10150775DD8B07DD0020E07019A
:10504C001B25E96E000E1C21EA6EEECF03F0EECFAD
:10505C0004F077CD00F078CD01F0003600900136E9
:10506C0000500324E96E01500420EA6EEECF00F0EC
:10507C00EECF01F000C07DFD01C07EFD73CD83FD40
:10508C0074CD84FD75CD85FD76CD86FD020E002494
:10509C00E96E000E0120EA6EEECF87FD030E0024B0
:1050AC00E96E000E0120EA6EEECF88FD040E00249E
:1050BC00E96E000E0120EA6EEECF89FD050E00248C
:1050CC00E96E000E0120EA6EEECF8AFD5FEC14F063
:1050DC000050010A2CE11C0E7D25E96E000E7E218C
:1050EC00EA6EEECF01F0EECF02F0EECF03F0EECF92
:1050FC0004F0000E006E041808E10050031805E1DE
:10510C000050021802E10150000A11E01C0E7D252E
:10511C00E96E000E7E21EA6EEECF00F0EECF01F0CC
:10512C00EECF02F0EECF03F078EC0FF028D10D01AA
:10513C00774B782B74D7776B786B040E07011B2594
:10514C00D96E000E1C21DA6EDECF01F0DECF02F03C
:10515C0002500D01785D02E10150775DD8B07DD031
:10516C00060E07011B25E96E000E1C21EA6EEECF20
:10517C0003F0EECF04F077CD00F078CD01F00036DF
:10518C000090013600500324E96E01500420EA6EB1
:10519C00EECF00F0EECF01F000C07FFD01C080FD2E
:1051AC0073CD83FD74CD84FD75CD85FD76CD86FDE7
:1051BC00020E0024E96E000E0120EA6EEECF87FD90
:1051CC00030E0024E96E000E0120EA6EEECF88FD7E
:1051DC00040E0024E96E000E0120EA6EEECF89FD6C
:1051EC00050E0024E96E000E0120EA6EEECF8AFD5A
:1051FC005FEC14F00050010A2CE1190E7F25E96ECA
:10520C00000E8021EA6EEECF01F0EECF02F0EECF71
:10521C0003F0EECF04F0000E006E041808E100500D
:10522C00031805E10050021802E10150000A11E0D8
:10523C00190E7F25E96E000E8021EA6EEECF00F08C
:10524C00EECF01F0EECF02F0EECF03F078EC0FF0E2
:10525C0096D00D01774B782B70D7776B786B100E3F
:10526C0007011B25D96E000E1C21DA6EDECF01F072
:10527C00DECF02F002500D01785D02E10150775D46
:10528C00D8B07DD0120E07011B25E96E000E1C2133
:10529C00EA6EEECF03F0EECF04F077CD00F078CDD0
:1052AC0001F000360090013600500324E96E0150E5
:1052BC000420EA6EEECF00F0EECF01F000C081FDCD
:1052CC0001C082FD73CD83FD74CD84FD75CD85FD4C
:1052DC0076CD86FD020E0024E96E000E0120EA6EEA
:1052EC00EECF87FD030E0024E96E000E0120EA6E5E
:1052FC00EECF88FD040E0024E96E000E0120EA6E4C
:10530C00EECF89FD050E0024E96E000E0120EA6E39
:10531C00EECF8AFD5FEC14F00050010A2CE1130E65
:10532C008125E96E000E8221EA6EEECF01F0EECF00
:10533C0002F0EECF03F0EECF04F0000E006E041876
:10534C0008E10050031805E10050021802E1015079
:10535C00000A11E0130E8125E96E000E8221EA6E1F
:10536C00EECF00F0EECF01F0EECF02F0EECF03F077
:10537C0078EC0FF004D00D01774B782B70D712001E
:10538C000D01776B786B080E07011B25D96E000E8B
:10539C001C21DA6EDECF01F0DECF02F002500D01DF
:1053AC00785D02E10150775DD8B0B6D00A0E0701E6
:1053BC001B25E96E000E1C21EA6EEECF03F0EECF3A
:1053CC0004F077CD00F078CD01F000360090013676
:1053DC0000500324E96E01500420EA6EEECF00F079
:1053EC00EECF01F000C079FD01C07AFD73CD83FDD5
:1053FC0074CD84FD75CD85FD76CD86FD020E002421
:10540C00E96E000E0120EA6EEECF87FD030E00243C
:10541C00E96E000E0120EA6EEECF88FD040E00242A
:10542C00E96E000E0120EA6EEECF89FD050E002418
:10543C00E96E000E0120EA6EEECF8AFD5FEC14F0EF
:10544C000050010A65E1110E7925E96E000E7A21F2
:10545C00EA6EEECF01F0EECF02F0EECF03F0EECF1E
:10546C0004F0000E006E041808E10050031805E16A
:10547C000050021802E10150000A10E0110E7925CB
:10548C00E96E000E7A21EA6EEECF00F0EECF01F05D
:10549C00EECF02F0EECF03F078EC0FF00301DE510B
:1054AC000D017A1903E179510301DD192DE1190E72
:1054BC000D017925E96E000E7A21EA6EEECF01F02E
:1054CC00EECF02F0EECF03F0EECF04F0000E006E44
:1054DC00041808E10050031805E10050021802E11D
:1054EC000150000A11E00D01190E7925E96E000E2C
:1054FC007A21EA6EEECF00F0EECF01F0EECF02F0A3
:10550C00EECF03F078EC0FF00301DD6BDE6B2FD3E5
:10551C000D01774B782B37D7776B786B0C0E070117
:10552C001B25D96E000E1C21DA6EDECF01F0DECF0A
:10553C0002F002500D01785D02E10150775DD8B0A8
:10554C00B6D00E0E07011B25E96E000E1C21EA6E6B
:10555C00EECF03F0EECF04F077CD00F078CD01F074
:10556C0000360090013600500324E96E01500420EF
:10557C00EA6EEECF00F0EECF01F000C07BFD01C073
:10558C007CFD73CD83FD74CD84FD75CD85FD76CD0D
:10559C0086FD020E0024E96E000E0120EA6EEECFAD
:1055AC0087FD030E0024E96E000E0120EA6EEECF9B
:1055BC0088FD040E0024E96E000E0120EA6EEECF89
:1055CC0089FD050E0024E96E000E0120EA6EEECF77
:1055DC008AFD5FEC14F00050010A65E1120E7B2588
:1055EC00E96E000E7C21EA6EEECF01F0EECF02F0F8
:1055FC00EECF03F0EECF04F0000E006E041808E1BD
:10560C000050031805E10050021802E10150000A95
:10561C0010E0120E7B25E96E000E7C21EA6EEECFB7
:10562C0000F0EECF01F0EECF02F0EECF03F078EC0D
:10563C000FF00301DE510D017C1903E17B510301D5
:10564C00DD192DE11A0E0D017B25E96E000E7C2172
:10565C00EA6EEECF01F0EECF02F0EECF03F0EECF1C
:10566C0004F0000E006E041808E10050031805E168
:10567C000050021802E10150000A11E00D011A0E4F
:10568C007B25E96E000E7C21EA6EEECF00F0EECFAA
:10569C0001F0EECF02F0EECF03F078EC0FF0030147
:1056AC00DD6BDE6B64D20D01774B782B37D7776BC4
:1056BC00786B1BC7E9FF1CC7EAFFEECF01F0EECFFA
:1056CC0002F00250785D02E10150775DD8B0B6D09F
:1056DC00020E07011B25E96E000E1C21EA6EEECFAF
:1056EC0003F0EECF04F077CD00F078CD01F000366A
:1056FC000090013600500324E96E01500420EA6E3C
:10570C00EECF00F0EECF01F000C07DFD01C07EFDBC
:10571C0073CD83FD74CD84FD75CD85FD76CD86FD71
:10572C00020E0024E96E000E0120EA6EEECF87FD1A
:10573C00030E0024E96E000E0120EA6EEECF88FD08
:10574C00040E0024E96E000E0120EA6EEECF89FDF6
:10575C00050E0024E96E000E0120EA6EEECF8AFDE4
:10576C005FEC14F00050010A65E1100E7D25E96E26
:10577C00000E7E21EA6EEECF01F0EECF02F0EECFFE
:10578C0003F0EECF04F0000E006E041808E1005098
:10579C00031805E10050021802E10150000A10E064
:1057AC00100E7D25E96E000E7E21EA6EEECF00F024
:1057BC00EECF01F0EECF02F0EECF03F078EC0FF06D
:1057CC000301DE510D017E1903E17D510301DD1949
:1057DC002DE1180E0D017D25E96E000E7E21EA6E7D
:1057EC00EECF01F0EECF02F0EECF03F0EECF04F0EF
:1057FC00000E006E041808E10050031805E100507B
:10580C00021802E10150000A11E00D01180E7D256D
:10581C00E96E000E7E21EA6EEECF00F0EECF01F0C5
:10582C00EECF02F0EECF03F078EC0FF00301DD6B5E
:10583C00DE6B9DD10D01774B782B3BD7776B786B5B
:10584C00040E07011B25D96E000E1C21DA6EDECF6B
:10585C0001F0DECF02F002500D01785D02E1015043
:10586C00775DD8B0B6D0060E07011B25E96E000E89
:10587C001C21EA6EEECF03F0EECF04F077CD00F0F2
:10588C0078CD01F000360090013600500324E96E0B
:10589C0001500420EA6EEECF00F0EECF01F000C014
:1058AC007FFD01C080FD73CD83FD74CD84FD75CD6E
:1058BC0085FD76CD86FD020E0024E96E000E0120DA
:1058CC00EA6EEECF87FD030E0024E96E000E012078
:1058DC00EA6EEECF88FD040E0024E96E000E012066
:1058EC00EA6EEECF89FD050E0024E96E000E012054
:1058FC00EA6EEECF8AFD5FEC14F00050010A65E110
:10590C000D0E7F25E96E000E8021EA6EEECF01F0C0
:10591C00EECF02F0EECF03F0EECF04F0000E006EEF
:10592C00041808E10050031805E10050021802E1C8
:10593C000150000A10E00D0E7F25E96E000E80214B
:10594C00EA6EEECF00F0EECF01F0EECF02F0EECF2C
:10595C0003F078EC0FF00301DE510D01801903E127
:10596C007F510301DD192DE1150E0D017F25E96E27
:10597C00000E8021EA6EEECF01F0EECF02F0EECFFA
:10598C0003F0EECF04F0000E006E041808E1005096
:10599C00031805E10050021802E10150000A11E061
:1059AC000D01150E7F25E96E000E8021EA6EEECFFB
:1059BC0000F0EECF01F0EECF02F0EECF03F078EC7A
:1059CC000FF00301DD6BDE6BD2D00D01774B782B22
:1059DC0037D7776B786B100E07011B25D96E000E2D
:1059EC001C21DA6EDECF01F0DECF02F002500D0189
:1059FC00785D02E10150775DD8B0B6D0120E070188
:105A0C001B25E96E000E1C21EA6EEECF03F0EECFE3
